{
  "contractName": "DaiFaucet",
  "abi": [
    {
      "anonymous": false,
      "inputs": [
        {
          "indexed": true,
          "internalType": "address",
          "name": "from",
          "type": "address"
        },
        {
          "indexed": false,
          "internalType": "uint256",
          "name": "amount",
          "type": "uint256"
        }
      ],
      "name": "Deposit",
      "type": "event"
    },
    {
      "anonymous": false,
      "inputs": [
        {
          "indexed": true,
          "internalType": "address",
          "name": "to",
          "type": "address"
        },
        {
          "indexed": false,
          "internalType": "uint256",
          "name": "amount",
          "type": "uint256"
        }
      ],
      "name": "Withdrawal",
      "type": "event"
    },
    {
      "inputs": [],
      "name": "destroy",
      "outputs": [],
      "stateMutability": "nonpayable",
      "type": "function"
    },
    {
      "stateMutability": "payable",
      "type": "receive"
    },
    {
      "inputs": [
        {
          "internalType": "uint256",
          "name": "withdraw_amount",
          "type": "uint256"
        }
      ],
      "name": "withdraw",
      "outputs": [],
      "stateMutability": "nonpayable",
      "type": "function"
    }
  ],
  "bytecode": "0x6080604052336000806101000a81548173ffffffffffffffffffffffffffffffffffffffff021916908373ffffffffffffffffffffffffffffffffffffffff160217905550734f96fe3b7a6cf9725f59d353f723c1bdb64ca6aa600160006101000a81548173ffffffffffffffffffffffffffffffffffffffff021916908373ffffffffffffffffffffffffffffffffffffffff16021790555061068c806100a86000396000f3fe60806040526004361061002d5760003560e01c80632e1a7d4d1461008757806383197ef0146100c257610082565b36610082573373ffffffffffffffffffffffffffffffffffffffff167fe1fffcc4923d04b559f4d29a8bfc6cda04eb5b0d3c460751c2402c5c5cc9109c346040518082815260200191505060405180910390a2005b600080fd5b34801561009357600080fd5b506100c0600480360360208110156100aa57600080fd5b81019080803590602001909291905050506100d9565b005b3480156100ce57600080fd5b506100d7610356565b005b67016345785d8a00008111156100ee57600080fd5b80600160009054906101000a900473ffffffffffffffffffffffffffffffffffffffff1673ffffffffffffffffffffffffffffffffffffffff166370a08231306040518263ffffffff1660e01b8152600401808273ffffffffffffffffffffffffffffffffffffffff1673ffffffffffffffffffffffffffffffffffffffff16815260200191505060206040518083038186803b15801561018e57600080fd5b505afa1580156101a2573d6000803e3d6000fd5b505050506040513d60208110156101b857600080fd5b81019080805190602001909291905050501015610220576040517f08c379a00000000000000000000000000000000000000000000000000000000081526004018080602001828103825260358152602001806106226035913960400191505060405180910390fd5b600160009054906101000a900473ffffffffffffffffffffffffffffffffffffffff1673ffffffffffffffffffffffffffffffffffffffff1663a9059cbb33836040518363ffffffff1660e01b8152600401808373ffffffffffffffffffffffffffffffffffffffff1673ffffffffffffffffffffffffffffffffffffffff16815260200182815260200192505050602060405180830381600087803b1580156102c957600080fd5b505af11580156102dd573d6000803e3d6000fd5b505050506040513d60208110156102f357600080fd5b8101908080519060200190929190505050503373ffffffffffffffffffffffffffffffffffffffff167f7fcf532c15f0a6db0bd6d0e038bea71d30d808c7d98cb3bf7268a95bf5081b65826040518082815260200191505060405180910390a250565b6000809054906101000a900473ffffffffffffffffffffffffffffffffffffffff1673ffffffffffffffffffffffffffffffffffffffff163373ffffffffffffffffffffffffffffffffffffffff16146103fb576040517f08c379a000000000000000000000000000000000000000000000000000000000815260040180806020018281038252602e8152602001806105f4602e913960400191505060405180910390fd5b600160009054906101000a900473ffffffffffffffffffffffffffffffffffffffff1673ffffffffffffffffffffffffffffffffffffffff1663a9059cbb6000809054906101000a900473ffffffffffffffffffffffffffffffffffffffff16600160009054906101000a900473ffffffffffffffffffffffffffffffffffffffff1673ffffffffffffffffffffffffffffffffffffffff166370a08231306040518263ffffffff1660e01b8152600401808273ffffffffffffffffffffffffffffffffffffffff1673ffffffffffffffffffffffffffffffffffffffff16815260200191505060206040518083038186803b1580156104fa57600080fd5b505afa15801561050e573d6000803e3d6000fd5b505050506040513d602081101561052457600080fd5b81019080805190602001909291905050506040518363ffffffff1660e01b8152600401808373ffffffffffffffffffffffffffffffffffffffff1673ffffffffffffffffffffffffffffffffffffffff16815260200182815260200192505050602060405180830381600087803b15801561059e57600080fd5b505af11580156105b2573d6000803e3d6000fd5b505050506040513d60208110156105c857600080fd5b8101908080519060200190929190505050503373ffffffffffffffffffffffffffffffffffffffff16fffe4f6e6c792074686520636f6e7472616374206f776e65722063616e2063616c6c20746869732066756e6374696f6e496e73756666696369656e742062616c616e636520696e2066617563657420666f72207769746864726177616c2072657175657374a2646970667358221220cd5e61a8e1948566559f3bcad920f8d03f74dd036ed9d8c231de9f871212004564736f6c63430006060033",
  "immutableReferences": {},
  "source": "pragma solidity =0.6.6;\r\nimport \"./NiftRouter.sol\";\r\n\r\ninterface DaiToken {\r\n    function transfer(address dst, uint256 wad) external returns (bool);\r\n\r\n    function balanceOf(address guy) external view returns (uint256);\r\n}\r\n\r\ncontract exampleSwap {\r\n    address owner;\r\n    DaiToken daitoken;\r\n\r\n    constructor() public {\r\n        owner = msg.sender;\r\n        daitoken = DaiToken(0x4F96Fe3b7A6Cf9725f59d353F723c1bDb64CA6Aa);\r\n    }\r\n\r\n    modifier onlyOwner {\r\n        require(\r\n            msg.sender == owner,\r\n            \"Only the contract owner can call this function\"\r\n        );\r\n        _;\r\n    }\r\n}\r\n\r\ncontract mortal is exampleSwap {\r\n    // Only owner can shutdown this contract.\r\n    function destroy() public onlyOwner {\r\n        daitoken.transfer(owner, daitoken.balanceOf(address(this)));\r\n        selfdestruct(msg.sender);\r\n    }\r\n}\r\n\r\ncontract DaiFaucet is mortal {\r\n    event Withdrawal(address indexed to, uint256 amount);\r\n    event Deposit(address indexed from, uint256 amount);\r\n\r\n    // Give out Dai to anyone who asks\r\n    function withdraw(uint256 withdraw_amount) public {\r\n        // Limit withdrawal amount\r\n        require(withdraw_amount <= 0.1 ether);\r\n        require(\r\n            daitoken.balanceOf(address(this)) >= withdraw_amount,\r\n            \"Insufficient balance in faucet for withdrawal request\"\r\n        );\r\n        // Send the amount to the address that requested it\r\n        daitoken.transfer(msg.sender, withdraw_amount);\r\n        emit Withdrawal(msg.sender, withdraw_amount);\r\n    }\r\n\r\n    // Accept any incoming amount\r\n    receive() external payable {\r\n        emit Deposit(msg.sender, msg.value);\r\n    }\r\n}\r\n",
  "sourcePath": "D:/Blockchain/Niftswap/niftswap-periphery/contracts/exampleSwap.sol",
  "compiler": {
    "name": "solc",
    "version": "0.6.6+commit.6c089d02.Emscripten.clang"
  },
  "schemaVersion": "3.3.1",
  "updatedAt": "2021-04-18T10:22:52.516Z",
  "devdoc": {
    "methods": {}
  },
  "userdoc": {
    "methods": {}
  }
}