{
  "contractName": "ExampleSwapToPrice",
  "abi": [
    {
      "inputs": [
        {
          "internalType": "address",
          "name": "factory_",
          "type": "address"
        },
        {
          "internalType": "contract INiftRouter01",
          "name": "router_",
          "type": "address"
        }
      ],
      "stateMutability": "nonpayable",
      "type": "constructor"
    },
    {
      "inputs": [],
      "name": "factory",
      "outputs": [
        {
          "internalType": "address",
          "name": "",
          "type": "address"
        }
      ],
      "stateMutability": "view",
      "type": "function"
    },
    {
      "inputs": [],
      "name": "router",
      "outputs": [
        {
          "internalType": "contract INiftRouter01",
          "name": "",
          "type": "address"
        }
      ],
      "stateMutability": "view",
      "type": "function"
    },
    {
      "inputs": [
        {
          "internalType": "uint256",
          "name": "truePriceTokenA",
          "type": "uint256"
        },
        {
          "internalType": "uint256",
          "name": "truePriceTokenB",
          "type": "uint256"
        },
        {
          "internalType": "uint256",
          "name": "reserveA",
          "type": "uint256"
        },
        {
          "internalType": "uint256",
          "name": "reserveB",
          "type": "uint256"
        }
      ],
      "name": "computeProfitMaximizingTrade",
      "outputs": [
        {
          "internalType": "bool",
          "name": "aToB",
          "type": "bool"
        },
        {
          "internalType": "uint256",
          "name": "amountIn",
          "type": "uint256"
        }
      ],
      "stateMutability": "pure",
      "type": "function"
    },
    {
      "inputs": [
        {
          "internalType": "address",
          "name": "tokenA",
          "type": "address"
        },
        {
          "internalType": "address",
          "name": "tokenB",
          "type": "address"
        },
        {
          "internalType": "uint256",
          "name": "truePriceTokenA",
          "type": "uint256"
        },
        {
          "internalType": "uint256",
          "name": "truePriceTokenB",
          "type": "uint256"
        },
        {
          "internalType": "uint256",
          "name": "maxSpendTokenA",
          "type": "uint256"
        },
        {
          "internalType": "uint256",
          "name": "maxSpendTokenB",
          "type": "uint256"
        },
        {
          "internalType": "address",
          "name": "to",
          "type": "address"
        },
        {
          "internalType": "uint256",
          "name": "deadline",
          "type": "uint256"
        }
      ],
      "name": "swapToPrice",
      "outputs": [],
      "stateMutability": "nonpayable",
      "type": "function"
    }
  ],
  "bytecode": "0x60c060405234801561001057600080fd5b506040516112d93803806112d98339818101604052604081101561003357600080fd5b8101908080519060200190929190805190602001909291905050508173ffffffffffffffffffffffffffffffffffffffff1660a08173ffffffffffffffffffffffffffffffffffffffff1660601b815250508073ffffffffffffffffffffffffffffffffffffffff1660808173ffffffffffffffffffffffffffffffffffffffff1660601b81525050505060805160601c60a05160601c6111e36100f66000398061031952806106945250806103aa52806104ad52806106b852506111e36000f3fe608060405234801561001057600080fd5b506004361061004c5760003560e01c8063bef90fd314610051578063c45a015514610108578063f887ea4014610152578063fa6531541461019c575b600080fd5b610106600480360361010081101561006857600080fd5b81019080803573ffffffffffffffffffffffffffffffffffffffff169060200190929190803573ffffffffffffffffffffffffffffffffffffffff16906020019092919080359060200190929190803590602001909291908035906020019092919080359060200190929190803573ffffffffffffffffffffffffffffffffffffffff16906020019092919080359060200190929190505050610207565b005b610110610692565b604051808273ffffffffffffffffffffffffffffffffffffffff1673ffffffffffffffffffffffffffffffffffffffff16815260200191505060405180910390f35b61015a6106b6565b604051808273ffffffffffffffffffffffffffffffffffffffff1673ffffffffffffffffffffffffffffffffffffffff16815260200191505060405180910390f35b6101e6600480360360808110156101b257600080fd5b81019080803590602001909291908035906020019092919080359060200190929190803590602001909291905050506106da565b60405180831515151581526020018281526020019250505060405180910390f35b60008614158015610219575060008514155b61028b576040517f08c379a000000000000000000000000000000000000000000000000000000000815260040180806020018281038252601e8152602001807f4578616d706c6553776170546f50726963653a205a45524f5f5052494345000081525060200191505060405180910390fd5b60008414158061029c575060008314155b61030e576040517f08c379a000000000000000000000000000000000000000000000000000000000815260040180806020018281038252601e8152602001807f4578616d706c6553776170546f50726963653a205a45524f5f5350454e44000081525060200191505060405180910390fd5b60008060008061033f7f00000000000000000000000000000000000000000000000000000000000000008d8d6107e1565b9150915061034f8a8a84846106da565b809450819550505050506000826103665785610368565b865b905080821115610376578091505b600083610383578a610385565b8b5b9050600084610394578c610396565b8b5b90506103a482333087610916565b6103cf827f000000000000000000000000000000000000000000000000000000000000000086610b27565b6060600267ffffffffffffffff811180156103e957600080fd5b506040519080825280602002602001820160405280156104185781602001602082028036833780820191505090505b509050828160008151811061042957fe5b602002602001019073ffffffffffffffffffffffffffffffffffffffff16908173ffffffffffffffffffffffffffffffffffffffff1681525050818160018151811061047157fe5b602002602001019073ffffffffffffffffffffffffffffffffffffffff16908173ffffffffffffffffffffffffffffffffffffffff16815250507f000000000000000000000000000000000000000000000000000000000000000073ffffffffffffffffffffffffffffffffffffffff166338ed1739866000848c8c6040518663ffffffff1660e01b815260040180868152602001858152602001806020018473ffffffffffffffffffffffffffffffffffffffff1673ffffffffffffffffffffffffffffffffffffffff168152602001838152602001828103825285818151815260200191508051906020019060200280838360005b83811015610583578082015181840152602081019050610568565b505050509050019650505050505050600060405180830381600087803b1580156105ac57600080fd5b505af11580156105c0573d6000803e3d6000fd5b505050506040513d6000823e3d601f19601f8201168201806040525060208110156105ea57600080fd5b810190808051604051939291908464010000000082111561060a57600080fd5b8382019150602082018581111561062057600080fd5b825186602082028301116401000000008211171561063d57600080fd5b8083526020830192505050908051906020019060200280838360005b83811015610674578082015181840152602081019050610659565b50505050905001604052505050505050505050505050505050505050565b7f000000000000000000000000000000000000000000000000000000000000000081565b7f000000000000000000000000000000000000000000000000000000000000000081565b60008085836106f28787610d2090919063ffffffff16565b816106f957fe5b0410915060006107128486610d2090919063ffffffff16565b9050600061077a61073a6103e58661072a578a61072c565b895b610d2090919063ffffffff16565b61076d6103e861075f8861074e578b610750565b8c5b87610d2090919063ffffffff16565b610d2090919063ffffffff16565b8161077457fe5b04610db5565b905060006103e5856107a05761079b6103e888610d2090919063ffffffff16565b6107b6565b6107b56103e889610d2090919063ffffffff16565b5b816107bd57fe5b0490506107d38183610e1790919063ffffffff16565b935050505094509492505050565b60008060006107f08585610e9a565b5090506107fe86868661102e565b5060008061080d88888861102e565b73ffffffffffffffffffffffffffffffffffffffff16630902f1ac6040518163ffffffff1660e01b815260040160606040518083038186803b15801561085257600080fd5b505afa158015610866573d6000803e3d6000fd5b505050506040513d606081101561087c57600080fd5b81019080805190602001909291908051906020019092919080519060200190929190505050506dffffffffffffffffffffffffffff1691506dffffffffffffffffffffffffffff1691508273ffffffffffffffffffffffffffffffffffffffff168773ffffffffffffffffffffffffffffffffffffffff1614610900578082610903565b81815b8095508196505050505050935093915050565b600060608573ffffffffffffffffffffffffffffffffffffffff166323b872dd868686604051602401808473ffffffffffffffffffffffffffffffffffffffff1673ffffffffffffffffffffffffffffffffffffffff1681526020018373ffffffffffffffffffffffffffffffffffffffff1673ffffffffffffffffffffffffffffffffffffffff16815260200182815260200193505050506040516020818303038152906040529060e01b6020820180517bffffffffffffffffffffffffffffffffffffffffffffffffffffffff83818316178352505050506040518082805190602001908083835b60208310610a235780518252602082019150602081019050602083039250610a00565b6001836020036101000a0380198251168184511680821785525050505050509050019150506000604051808303816000865af19150503d8060008114610a85576040519150601f19603f3d011682016040523d82523d6000602084013e610a8a565b606091505b5091509150818015610aca5750600081511480610ac95750808060200190516020811015610ab757600080fd5b81019080805190602001909291905050505b5b610b1f576040517f08c379a000000000000000000000000000000000000000000000000000000000815260040180806020018281038252602481526020018061118a6024913960400191505060405180910390fd5b505050505050565b600060608473ffffffffffffffffffffffffffffffffffffffff1663095ea7b38585604051602401808373ffffffffffffffffffffffffffffffffffffffff1673ffffffffffffffffffffffffffffffffffffffff168152602001828152602001925050506040516020818303038152906040529060e01b6020820180517bffffffffffffffffffffffffffffffffffffffffffffffffffffffff83818316178352505050506040518082805190602001908083835b60208310610c005780518252602082019150602081019050602083039250610bdd565b6001836020036101000a0380198251168184511680821785525050505050509050019150506000604051808303816000865af19150503d8060008114610c62576040519150601f19603f3d011682016040523d82523d6000602084013e610c67565b606091505b5091509150818015610ca75750600081511480610ca65750808060200190516020811015610c9457600080fd5b81019080805190602001909291905050505b5b610d19576040517f08c379a000000000000000000000000000000000000000000000000000000000815260040180806020018281038252601e8152602001807f5472616e7366657248656c7065723a20415050524f56455f4641494c4544000081525060200191505060405180910390fd5b5050505050565b600080821480610d3d5750828283850292508281610d3a57fe5b04145b610daf576040517f08c379a00000000000000000000000000000000000000000000000000000000081526004018080602001828103825260148152602001807f64732d6d6174682d6d756c2d6f766572666c6f7700000000000000000000000081525060200191505060405180910390fd5b92915050565b60006003821115610e04578190506000600160028481610dd157fe5b040190505b81811015610dfe57809150600281828581610ded57fe5b040181610df657fe5b049050610dd6565b50610e12565b60008214610e1157600190505b5b919050565b6000828284039150811115610e94576040517f08c379a00000000000000000000000000000000000000000000000000000000081526004018080602001828103825260158152602001807f64732d6d6174682d7375622d756e646572666c6f77000000000000000000000081525060200191505060405180910390fd5b92915050565b6000808273ffffffffffffffffffffffffffffffffffffffff168473ffffffffffffffffffffffffffffffffffffffff161415610f3f576040517f08c379a00000000000000000000000000000000000000000000000000000000081526004018080602001828103825260208152602001807f4e6966744c6962726172793a204944454e544943414c5f41444452455353455381525060200191505060405180910390fd5b8273ffffffffffffffffffffffffffffffffffffffff168473ffffffffffffffffffffffffffffffffffffffff1610610f79578284610f7c565b83835b8092508193505050600073ffffffffffffffffffffffffffffffffffffffff168273ffffffffffffffffffffffffffffffffffffffff161415611027576040517f08c379a00000000000000000000000000000000000000000000000000000000081526004018080602001828103825260198152602001807f4e6966744c6962726172793a205a45524f5f414444524553530000000000000081525060200191505060405180910390fd5b9250929050565b600080600061103d8585610e9a565b91509150858282604051602001808373ffffffffffffffffffffffffffffffffffffffff1673ffffffffffffffffffffffffffffffffffffffff1660601b81526014018273ffffffffffffffffffffffffffffffffffffffff1673ffffffffffffffffffffffffffffffffffffffff1660601b8152601401925050506040516020818303038152906040528051906020012060405160200180807fff000000000000000000000000000000000000000000000000000000000000008152506001018373ffffffffffffffffffffffffffffffffffffffff1673ffffffffffffffffffffffffffffffffffffffff1660601b8152601401828152602001807f1be6d0069a66910bee423c2b8f27563ac9bd0648f55fcdbc63dbe8dc237fd71e815250602001925050506040516020818303038152906040528051906020012060001c92505050939250505056fe5472616e7366657248656c7065723a205452414e534645525f46524f4d5f4641494c4544a2646970667358221220b46c66324658ddbba1d822a4c2e872d2707b16cc9df5e1f9069f470d11ae02ba64736f6c63430006060033",
  "immutableReferences": {
    "4481": [
      {
        "length": 32,
        "start": 938
      },
      {
        "length": 32,
        "start": 1197
      },
      {
        "length": 32,
        "start": 1720
      }
    ],
    "4483": [
      {
        "length": 32,
        "start": 793
      },
      {
        "length": 32,
        "start": 1684
      }
    ]
  },
  "source": "pragma solidity =0.6.6;\r\n\r\nimport '@uniswap/v2-core/contracts/interfaces/INiftPair.sol';\r\nimport '@uniswap/lib/contracts/libraries/Babylonian.sol';\r\nimport '@uniswap/lib/contracts/libraries/TransferHelper.sol';\r\n\r\nimport '../interfaces/IERC20.sol';\r\nimport '../interfaces/INiftRouter01.sol';\r\nimport '../libraries/SafeMath.sol';\r\nimport '../libraries/NiftLibrary.sol';\r\n\r\ncontract ExampleSwapToPrice {\r\n    using SafeMath for uint256;\r\n\r\n    INiftRouter01 public immutable router;\r\n    address public immutable factory;\r\n\r\n    constructor(address factory_, INiftRouter01 router_) public {\r\n        factory = factory_;\r\n        router = router_;\r\n    }\r\n\r\n    // computes the direction and magnitude of the profit-maximizing trade\r\n    function computeProfitMaximizingTrade(\r\n        uint256 truePriceTokenA,\r\n        uint256 truePriceTokenB,\r\n        uint256 reserveA,\r\n        uint256 reserveB\r\n    ) pure public returns (bool aToB, uint256 amountIn) {\r\n        aToB = reserveA.mul(truePriceTokenB) / reserveB < truePriceTokenA;\r\n\r\n        uint256 invariant = reserveA.mul(reserveB);\r\n\r\n        uint256 leftSide = Babylonian.sqrt(\r\n            invariant.mul(aToB ? truePriceTokenA : truePriceTokenB).mul(1000) /\r\n            uint256(aToB ? truePriceTokenB : truePriceTokenA).mul(997)\r\n        );\r\n        uint256 rightSide = (aToB ? reserveA.mul(1000) : reserveB.mul(1000)) / 997;\r\n\r\n        // compute the amount that must be sent to move the price to the profit-maximizing price\r\n        amountIn = leftSide.sub(rightSide);\r\n    }\r\n\r\n    // swaps an amount of either token such that the trade is profit-maximizing, given an external true price\r\n    // true price is expressed in the ratio of token A to token B\r\n    // caller must approve this contract to spend whichever token is intended to be swapped\r\n    function swapToPrice(\r\n        address tokenA,\r\n        address tokenB,\r\n        uint256 truePriceTokenA,\r\n        uint256 truePriceTokenB,\r\n        uint256 maxSpendTokenA,\r\n        uint256 maxSpendTokenB,\r\n        address to,\r\n        uint256 deadline\r\n    ) public {\r\n        // true price is expressed as a ratio, so both values must be non-zero\r\n        require(truePriceTokenA != 0 && truePriceTokenB != 0, \"ExampleSwapToPrice: ZERO_PRICE\");\r\n        // caller can specify 0 for either if they wish to swap in only one direction, but not both\r\n        require(maxSpendTokenA != 0 || maxSpendTokenB != 0, \"ExampleSwapToPrice: ZERO_SPEND\");\r\n\r\n        bool aToB;\r\n        uint256 amountIn;\r\n        {\r\n            (uint256 reserveA, uint256 reserveB) = NiftLibrary.getReserves(factory, tokenA, tokenB);\r\n            (aToB, amountIn) = computeProfitMaximizingTrade(\r\n                truePriceTokenA, truePriceTokenB,\r\n                reserveA, reserveB\r\n            );\r\n        }\r\n\r\n        // spend up to the allowance of the token in\r\n        uint256 maxSpend = aToB ? maxSpendTokenA : maxSpendTokenB;\r\n        if (amountIn > maxSpend) {\r\n            amountIn = maxSpend;\r\n        }\r\n\r\n        address tokenIn = aToB ? tokenA : tokenB;\r\n        address tokenOut = aToB ? tokenB : tokenA;\r\n        TransferHelper.safeTransferFrom(tokenIn, msg.sender, address(this), amountIn);\r\n        TransferHelper.safeApprove(tokenIn, address(router), amountIn);\r\n\r\n        address[] memory path = new address[](2);\r\n        path[0] = tokenIn;\r\n        path[1] = tokenOut;\r\n\r\n        router.swapExactTokensForTokens(\r\n            amountIn,\r\n            0, // amountOutMin: we can skip computing this number because the math is tested\r\n            path,\r\n            to,\r\n            deadline\r\n        );\r\n    }\r\n}\r\n",
  "sourcePath": "D:/Blockchain/Niftswap/niftswap-periphery/contracts/examples/ExampleSwapToPrice.sol",
  "compiler": {
    "name": "solc",
    "version": "0.6.6+commit.6c089d02.Emscripten.clang"
  },
  "schemaVersion": "3.3.1",
  "updatedAt": "2021-04-18T07:08:40.016Z",
  "devdoc": {
    "methods": {}
  },
  "userdoc": {
    "methods": {}
  }
}