{
  "contractName": "NiftRouter",
  "abi": [
    {
      "inputs": [
        {
          "internalType": "address",
          "name": "_factory",
          "type": "address"
        },
        {
          "internalType": "address",
          "name": "_WETH",
          "type": "address"
        }
      ],
      "stateMutability": "nonpayable",
      "type": "constructor"
    },
    {
      "inputs": [],
      "name": "WETH",
      "outputs": [
        {
          "internalType": "address",
          "name": "",
          "type": "address"
        }
      ],
      "stateMutability": "view",
      "type": "function",
      "constant": true
    },
    {
      "inputs": [],
      "name": "factory",
      "outputs": [
        {
          "internalType": "address",
          "name": "",
          "type": "address"
        }
      ],
      "stateMutability": "view",
      "type": "function",
      "constant": true
    },
    {
      "stateMutability": "payable",
      "type": "receive",
      "payable": true
    },
    {
      "inputs": [
        {
          "internalType": "address",
          "name": "tokenA",
          "type": "address"
        },
        {
          "internalType": "address",
          "name": "tokenB",
          "type": "address"
        },
        {
          "internalType": "uint256",
          "name": "amountADesired",
          "type": "uint256"
        },
        {
          "internalType": "uint256",
          "name": "amountBDesired",
          "type": "uint256"
        },
        {
          "internalType": "uint256",
          "name": "amountAMin",
          "type": "uint256"
        },
        {
          "internalType": "uint256",
          "name": "amountBMin",
          "type": "uint256"
        },
        {
          "internalType": "address",
          "name": "to",
          "type": "address"
        },
        {
          "internalType": "uint256",
          "name": "deadline",
          "type": "uint256"
        }
      ],
      "name": "addLiquidity",
      "outputs": [
        {
          "internalType": "uint256",
          "name": "amountA",
          "type": "uint256"
        },
        {
          "internalType": "uint256",
          "name": "amountB",
          "type": "uint256"
        },
        {
          "internalType": "uint256",
          "name": "liquidity",
          "type": "uint256"
        }
      ],
      "stateMutability": "nonpayable",
      "type": "function"
    },
    {
      "inputs": [
        {
          "internalType": "address",
          "name": "token",
          "type": "address"
        },
        {
          "internalType": "uint256",
          "name": "amountTokenDesired",
          "type": "uint256"
        },
        {
          "internalType": "uint256",
          "name": "amountTokenMin",
          "type": "uint256"
        },
        {
          "internalType": "uint256",
          "name": "amountETHMin",
          "type": "uint256"
        },
        {
          "internalType": "address",
          "name": "to",
          "type": "address"
        },
        {
          "internalType": "uint256",
          "name": "deadline",
          "type": "uint256"
        }
      ],
      "name": "addLiquidityETH",
      "outputs": [
        {
          "internalType": "uint256",
          "name": "amountToken",
          "type": "uint256"
        },
        {
          "internalType": "uint256",
          "name": "amountETH",
          "type": "uint256"
        },
        {
          "internalType": "uint256",
          "name": "liquidity",
          "type": "uint256"
        }
      ],
      "stateMutability": "payable",
      "type": "function",
      "payable": true
    },
    {
      "inputs": [
        {
          "internalType": "address",
          "name": "tokenA",
          "type": "address"
        },
        {
          "internalType": "address",
          "name": "tokenB",
          "type": "address"
        },
        {
          "internalType": "uint256",
          "name": "liquidity",
          "type": "uint256"
        },
        {
          "internalType": "uint256",
          "name": "amountAMin",
          "type": "uint256"
        },
        {
          "internalType": "uint256",
          "name": "amountBMin",
          "type": "uint256"
        },
        {
          "internalType": "address",
          "name": "to",
          "type": "address"
        },
        {
          "internalType": "uint256",
          "name": "deadline",
          "type": "uint256"
        }
      ],
      "name": "removeLiquidity",
      "outputs": [
        {
          "internalType": "uint256",
          "name": "amountA",
          "type": "uint256"
        },
        {
          "internalType": "uint256",
          "name": "amountB",
          "type": "uint256"
        }
      ],
      "stateMutability": "nonpayable",
      "type": "function"
    },
    {
      "inputs": [
        {
          "internalType": "address",
          "name": "token",
          "type": "address"
        },
        {
          "internalType": "uint256",
          "name": "liquidity",
          "type": "uint256"
        },
        {
          "internalType": "uint256",
          "name": "amountTokenMin",
          "type": "uint256"
        },
        {
          "internalType": "uint256",
          "name": "amountETHMin",
          "type": "uint256"
        },
        {
          "internalType": "address",
          "name": "to",
          "type": "address"
        },
        {
          "internalType": "uint256",
          "name": "deadline",
          "type": "uint256"
        }
      ],
      "name": "removeLiquidityETH",
      "outputs": [
        {
          "internalType": "uint256",
          "name": "amountToken",
          "type": "uint256"
        },
        {
          "internalType": "uint256",
          "name": "amountETH",
          "type": "uint256"
        }
      ],
      "stateMutability": "nonpayable",
      "type": "function"
    },
    {
      "inputs": [
        {
          "internalType": "address",
          "name": "tokenA",
          "type": "address"
        },
        {
          "internalType": "address",
          "name": "tokenB",
          "type": "address"
        },
        {
          "internalType": "uint256",
          "name": "liquidity",
          "type": "uint256"
        },
        {
          "internalType": "uint256",
          "name": "amountAMin",
          "type": "uint256"
        },
        {
          "internalType": "uint256",
          "name": "amountBMin",
          "type": "uint256"
        },
        {
          "internalType": "address",
          "name": "to",
          "type": "address"
        },
        {
          "internalType": "uint256",
          "name": "deadline",
          "type": "uint256"
        },
        {
          "internalType": "bool",
          "name": "approveMax",
          "type": "bool"
        },
        {
          "internalType": "uint8",
          "name": "v",
          "type": "uint8"
        },
        {
          "internalType": "bytes32",
          "name": "r",
          "type": "bytes32"
        },
        {
          "internalType": "bytes32",
          "name": "s",
          "type": "bytes32"
        }
      ],
      "name": "removeLiquidityWithPermit",
      "outputs": [
        {
          "internalType": "uint256",
          "name": "amountA",
          "type": "uint256"
        },
        {
          "internalType": "uint256",
          "name": "amountB",
          "type": "uint256"
        }
      ],
      "stateMutability": "nonpayable",
      "type": "function"
    },
    {
      "inputs": [
        {
          "internalType": "address",
          "name": "token",
          "type": "address"
        },
        {
          "internalType": "uint256",
          "name": "liquidity",
          "type": "uint256"
        },
        {
          "internalType": "uint256",
          "name": "amountTokenMin",
          "type": "uint256"
        },
        {
          "internalType": "uint256",
          "name": "amountETHMin",
          "type": "uint256"
        },
        {
          "internalType": "address",
          "name": "to",
          "type": "address"
        },
        {
          "internalType": "uint256",
          "name": "deadline",
          "type": "uint256"
        },
        {
          "internalType": "bool",
          "name": "approveMax",
          "type": "bool"
        },
        {
          "internalType": "uint8",
          "name": "v",
          "type": "uint8"
        },
        {
          "internalType": "bytes32",
          "name": "r",
          "type": "bytes32"
        },
        {
          "internalType": "bytes32",
          "name": "s",
          "type": "bytes32"
        }
      ],
      "name": "removeLiquidityETHWithPermit",
      "outputs": [
        {
          "internalType": "uint256",
          "name": "amountToken",
          "type": "uint256"
        },
        {
          "internalType": "uint256",
          "name": "amountETH",
          "type": "uint256"
        }
      ],
      "stateMutability": "nonpayable",
      "type": "function"
    },
    {
      "inputs": [
        {
          "internalType": "address",
          "name": "token",
          "type": "address"
        },
        {
          "internalType": "uint256",
          "name": "liquidity",
          "type": "uint256"
        },
        {
          "internalType": "uint256",
          "name": "amountTokenMin",
          "type": "uint256"
        },
        {
          "internalType": "uint256",
          "name": "amountETHMin",
          "type": "uint256"
        },
        {
          "internalType": "address",
          "name": "to",
          "type": "address"
        },
        {
          "internalType": "uint256",
          "name": "deadline",
          "type": "uint256"
        }
      ],
      "name": "removeLiquidityETHSupportingFeeOnTransferTokens",
      "outputs": [
        {
          "internalType": "uint256",
          "name": "amountETH",
          "type": "uint256"
        }
      ],
      "stateMutability": "nonpayable",
      "type": "function"
    },
    {
      "inputs": [
        {
          "internalType": "address",
          "name": "token",
          "type": "address"
        },
        {
          "internalType": "uint256",
          "name": "liquidity",
          "type": "uint256"
        },
        {
          "internalType": "uint256",
          "name": "amountTokenMin",
          "type": "uint256"
        },
        {
          "internalType": "uint256",
          "name": "amountETHMin",
          "type": "uint256"
        },
        {
          "internalType": "address",
          "name": "to",
          "type": "address"
        },
        {
          "internalType": "uint256",
          "name": "deadline",
          "type": "uint256"
        },
        {
          "internalType": "bool",
          "name": "approveMax",
          "type": "bool"
        },
        {
          "internalType": "uint8",
          "name": "v",
          "type": "uint8"
        },
        {
          "internalType": "bytes32",
          "name": "r",
          "type": "bytes32"
        },
        {
          "internalType": "bytes32",
          "name": "s",
          "type": "bytes32"
        }
      ],
      "name": "removeLiquidityETHWithPermitSupportingFeeOnTransferTokens",
      "outputs": [
        {
          "internalType": "uint256",
          "name": "amountETH",
          "type": "uint256"
        }
      ],
      "stateMutability": "nonpayable",
      "type": "function"
    },
    {
      "inputs": [
        {
          "internalType": "uint256",
          "name": "amountIn",
          "type": "uint256"
        },
        {
          "internalType": "uint256",
          "name": "amountOutMin",
          "type": "uint256"
        },
        {
          "internalType": "address[]",
          "name": "path",
          "type": "address[]"
        },
        {
          "internalType": "address",
          "name": "to",
          "type": "address"
        },
        {
          "internalType": "uint256",
          "name": "deadline",
          "type": "uint256"
        }
      ],
      "name": "swapExactTokensForTokens",
      "outputs": [
        {
          "internalType": "uint256[]",
          "name": "amounts",
          "type": "uint256[]"
        }
      ],
      "stateMutability": "nonpayable",
      "type": "function"
    },
    {
      "inputs": [
        {
          "internalType": "uint256",
          "name": "amountOut",
          "type": "uint256"
        },
        {
          "internalType": "uint256",
          "name": "amountInMax",
          "type": "uint256"
        },
        {
          "internalType": "address[]",
          "name": "path",
          "type": "address[]"
        },
        {
          "internalType": "address",
          "name": "to",
          "type": "address"
        },
        {
          "internalType": "uint256",
          "name": "deadline",
          "type": "uint256"
        }
      ],
      "name": "swapTokensForExactTokens",
      "outputs": [
        {
          "internalType": "uint256[]",
          "name": "amounts",
          "type": "uint256[]"
        }
      ],
      "stateMutability": "nonpayable",
      "type": "function"
    },
    {
      "inputs": [
        {
          "internalType": "uint256",
          "name": "amountOutMin",
          "type": "uint256"
        },
        {
          "internalType": "address[]",
          "name": "path",
          "type": "address[]"
        },
        {
          "internalType": "address",
          "name": "to",
          "type": "address"
        },
        {
          "internalType": "uint256",
          "name": "deadline",
          "type": "uint256"
        }
      ],
      "name": "swapExactETHForTokens",
      "outputs": [
        {
          "internalType": "uint256[]",
          "name": "amounts",
          "type": "uint256[]"
        }
      ],
      "stateMutability": "payable",
      "type": "function",
      "payable": true
    },
    {
      "inputs": [
        {
          "internalType": "uint256",
          "name": "amountOut",
          "type": "uint256"
        },
        {
          "internalType": "uint256",
          "name": "amountInMax",
          "type": "uint256"
        },
        {
          "internalType": "address[]",
          "name": "path",
          "type": "address[]"
        },
        {
          "internalType": "address",
          "name": "to",
          "type": "address"
        },
        {
          "internalType": "uint256",
          "name": "deadline",
          "type": "uint256"
        }
      ],
      "name": "swapTokensForExactETH",
      "outputs": [
        {
          "internalType": "uint256[]",
          "name": "amounts",
          "type": "uint256[]"
        }
      ],
      "stateMutability": "nonpayable",
      "type": "function"
    },
    {
      "inputs": [
        {
          "internalType": "uint256",
          "name": "amountIn",
          "type": "uint256"
        },
        {
          "internalType": "uint256",
          "name": "amountOutMin",
          "type": "uint256"
        },
        {
          "internalType": "address[]",
          "name": "path",
          "type": "address[]"
        },
        {
          "internalType": "address",
          "name": "to",
          "type": "address"
        },
        {
          "internalType": "uint256",
          "name": "deadline",
          "type": "uint256"
        }
      ],
      "name": "swapExactTokensForETH",
      "outputs": [
        {
          "internalType": "uint256[]",
          "name": "amounts",
          "type": "uint256[]"
        }
      ],
      "stateMutability": "nonpayable",
      "type": "function"
    },
    {
      "inputs": [
        {
          "internalType": "uint256",
          "name": "amountOut",
          "type": "uint256"
        },
        {
          "internalType": "address[]",
          "name": "path",
          "type": "address[]"
        },
        {
          "internalType": "address",
          "name": "to",
          "type": "address"
        },
        {
          "internalType": "uint256",
          "name": "deadline",
          "type": "uint256"
        }
      ],
      "name": "swapETHForExactTokens",
      "outputs": [
        {
          "internalType": "uint256[]",
          "name": "amounts",
          "type": "uint256[]"
        }
      ],
      "stateMutability": "payable",
      "type": "function",
      "payable": true
    },
    {
      "inputs": [
        {
          "internalType": "uint256",
          "name": "amountA",
          "type": "uint256"
        },
        {
          "internalType": "uint256",
          "name": "reserveA",
          "type": "uint256"
        },
        {
          "internalType": "uint256",
          "name": "reserveB",
          "type": "uint256"
        }
      ],
      "name": "quote",
      "outputs": [
        {
          "internalType": "uint256",
          "name": "amountB",
          "type": "uint256"
        }
      ],
      "stateMutability": "pure",
      "type": "function",
      "constant": true
    },
    {
      "inputs": [
        {
          "internalType": "uint256",
          "name": "amountIn",
          "type": "uint256"
        },
        {
          "internalType": "uint256",
          "name": "reserveIn",
          "type": "uint256"
        },
        {
          "internalType": "uint256",
          "name": "reserveOut",
          "type": "uint256"
        }
      ],
      "name": "getAmountOut",
      "outputs": [
        {
          "internalType": "uint256",
          "name": "amountOut",
          "type": "uint256"
        }
      ],
      "stateMutability": "pure",
      "type": "function",
      "constant": true
    },
    {
      "inputs": [
        {
          "internalType": "uint256",
          "name": "amountOut",
          "type": "uint256"
        },
        {
          "internalType": "uint256",
          "name": "reserveIn",
          "type": "uint256"
        },
        {
          "internalType": "uint256",
          "name": "reserveOut",
          "type": "uint256"
        }
      ],
      "name": "getAmountIn",
      "outputs": [
        {
          "internalType": "uint256",
          "name": "amountIn",
          "type": "uint256"
        }
      ],
      "stateMutability": "pure",
      "type": "function",
      "constant": true
    },
    {
      "inputs": [
        {
          "internalType": "uint256",
          "name": "amountIn",
          "type": "uint256"
        },
        {
          "internalType": "address[]",
          "name": "path",
          "type": "address[]"
        }
      ],
      "name": "getAmountsOut",
      "outputs": [
        {
          "internalType": "uint256[]",
          "name": "amounts",
          "type": "uint256[]"
        }
      ],
      "stateMutability": "view",
      "type": "function",
      "constant": true
    },
    {
      "inputs": [
        {
          "internalType": "uint256",
          "name": "amountOut",
          "type": "uint256"
        },
        {
          "internalType": "address[]",
          "name": "path",
          "type": "address[]"
        }
      ],
      "name": "getAmountsIn",
      "outputs": [
        {
          "internalType": "uint256[]",
          "name": "amounts",
          "type": "uint256[]"
        }
      ],
      "stateMutability": "view",
      "type": "function",
      "constant": true
    }
  ],
  "bytecode": "0x60c060405234801561001057600080fd5b506040516200561a3803806200561a8339818101604052604081101561003557600080fd5b8101908080519060200190929190805190602001909291905050508173ffffffffffffffffffffffffffffffffffffffff1660808173ffffffffffffffffffffffffffffffffffffffff1660601b815250508073ffffffffffffffffffffffffffffffffffffffff1660a08173ffffffffffffffffffffffffffffffffffffffff1660601b81525050505060805160601c60a05160601c61544a620001d060003980610135528061131e528061135c528061148c528061176a5280611cde5280611fb952806120af528061229a528061246252806124f7528061294b5280612a025280612af55280612f995280613337528061339052806133c452806134455280613685528061384a52806138df52508061157e528061168a528061183d52806118755280611a6e5280611b7a5280611dd05280611ed9528061208d52806123875280612536528061275752806128605280612c145280612f165280612f3f5280612f7752806131a9528061336e5280613772528061391e528061451d52806145615280614c6e5280614d965280614eac525061544a6000f3fe60806040526004361061012e5760003560e01c80638803dbee116100ab578063c45a01551161006f578063c45a015514610dab578063d06ca61f14610e02578063ded9382a14610f26578063e8e3370014611008578063f305d719146110ee578063fb3bdb411461119c5761018a565b80638803dbee14610a57578063ad5c464814610b70578063ad615dec14610bc7578063af2979eb14610c2a578063baa2abde14610cd75761018a565b806338ed1739116100f257806338ed1739146105e55780634a25d94a146106fe5780635b0d5984146108175780637ff36ab5146108f257806385f8c259146109f45761018a565b806302751cec1461018f578063054d50d41461024357806318cbafe5146102a65780631f00ca74146103bf5780632195995c146104e35761018a565b3661018a577f000000000000000000000000000000000000000000000000000000000000000073ffffffffffffffffffffffffffffffffffffffff163373ffffffffffffffffffffffffffffffffffffffff161461018857fe5b005b600080fd5b34801561019b57600080fd5b50610226600480360360c08110156101b257600080fd5b81019080803573ffffffffffffffffffffffffffffffffffffffff169060200190929190803590602001909291908035906020019092919080359060200190929190803573ffffffffffffffffffffffffffffffffffffffff1690602001909291908035906020019092919050505061129e565b604051808381526020018281526020019250505060405180910390f35b34801561024f57600080fd5b506102906004803603606081101561026657600080fd5b810190808035906020019092919080359060200190929190803590602001909291905050506113fb565b6040518082815260200191505060405180910390f35b3480156102b257600080fd5b50610368600480360360a08110156102c957600080fd5b810190808035906020019092919080359060200190929190803590602001906401000000008111156102fa57600080fd5b82018360208201111561030c57600080fd5b8035906020019184602083028401116401000000008311171561032e57600080fd5b9091929391929390803573ffffffffffffffffffffffffffffffffffffffff16906020019092919080359060200190929190505050611411565b6040518080602001828103825283818151815260200191508051906020019060200280838360005b838110156103ab578082015181840152602081019050610390565b505050509050019250505060405180910390f35b3480156103cb57600080fd5b5061048c600480360360408110156103e257600080fd5b81019080803590602001909291908035906020019064010000000081111561040957600080fd5b82018360208201111561041b57600080fd5b8035906020019184602083028401116401000000008311171561043d57600080fd5b919080806020026020016040519081016040528093929190818152602001838360200280828437600081840152601f19601f820116905080830192505050505050509192919290505050611836565b6040518080602001828103825283818151815260200191508051906020019060200280838360005b838110156104cf5780820151818401526020810190506104b4565b505050509050019250505060405180910390f35b3480156104ef57600080fd5b506105c8600480360361016081101561050757600080fd5b81019080803573ffffffffffffffffffffffffffffffffffffffff169060200190929190803573ffffffffffffffffffffffffffffffffffffffff169060200190929190803590602001909291908035906020019092919080359060200190929190803573ffffffffffffffffffffffffffffffffffffffff16906020019092919080359060200190929190803515159060200190929190803560ff169060200190929190803590602001909291908035906020019092919050505061186b565b604051808381526020018281526020019250505060405180910390f35b3480156105f157600080fd5b506106a7600480360360a081101561060857600080fd5b8101908080359060200190929190803590602001909291908035906020019064010000000081111561063957600080fd5b82018360208201111561064b57600080fd5b8035906020019184602083028401116401000000008311171561066d57600080fd5b9091929391929390803573ffffffffffffffffffffffffffffffffffffffff169060200190929190803590602001909291905050506119f0565b6040518080602001828103825283818151815260200191508051906020019060200280838360005b838110156106ea5780820151818401526020810190506106cf565b505050509050019250505060405180910390f35b34801561070a57600080fd5b506107c0600480360360a081101561072157600080fd5b8101908080359060200190929190803590602001909291908035906020019064010000000081111561075257600080fd5b82018360208201111561076457600080fd5b8035906020019184602083028401116401000000008311171561078657600080fd5b9091929391929390803573ffffffffffffffffffffffffffffffffffffffff16906020019092919080359060200190929190505050611c63565b6040518080602001828103825283818151815260200191508051906020019060200280838360005b838110156108035780820151818401526020810190506107e8565b505050509050019250505060405180910390f35b34801561082357600080fd5b506108dc600480360361014081101561083b57600080fd5b81019080803573ffffffffffffffffffffffffffffffffffffffff169060200190929190803590602001909291908035906020019092919080359060200190929190803573ffffffffffffffffffffffffffffffffffffffff16906020019092919080359060200190929190803515159060200190929190803560ff1690602001909291908035906020019092919080359060200190929190505050612085565b6040518082815260200191505060405180910390f35b61099d6004803603608081101561090857600080fd5b81019080803590602001909291908035906020019064010000000081111561092f57600080fd5b82018360208201111561094157600080fd5b8035906020019184602083028401116401000000008311171561096357600080fd5b9091929391929390803573ffffffffffffffffffffffffffffffffffffffff1690602001909291908035906020019092919050505061221f565b6040518080602001828103825283818151815260200191508051906020019060200280838360005b838110156109e05780820151818401526020810190506109c5565b505050509050019250505060405180910390f35b348015610a0057600080fd5b50610a4160048036036060811015610a1757600080fd5b810190808035906020019092919080359060200190929190803590602001909291905050506126c3565b6040518082815260200191505060405180910390f35b348015610a6357600080fd5b50610b19600480360360a0811015610a7a57600080fd5b81019080803590602001909291908035906020019092919080359060200190640100000000811115610aab57600080fd5b820183602082011115610abd57600080fd5b80359060200191846020830284011164010000000083111715610adf57600080fd5b9091929391929390803573ffffffffffffffffffffffffffffffffffffffff169060200190929190803590602001909291905050506126d9565b6040518080602001828103825283818151815260200191508051906020019060200280838360005b83811015610b5c578082015181840152602081019050610b41565b505050509050019250505060405180910390f35b348015610b7c57600080fd5b50610b85612949565b604051808273ffffffffffffffffffffffffffffffffffffffff1673ffffffffffffffffffffffffffffffffffffffff16815260200191505060405180910390f35b348015610bd357600080fd5b50610c1460048036036060811015610bea57600080fd5b8101908080359060200190929190803590602001909291908035906020019092919050505061296d565b6040518082815260200191505060405180910390f35b348015610c3657600080fd5b50610cc1600480360360c0811015610c4d57600080fd5b81019080803573ffffffffffffffffffffffffffffffffffffffff169060200190929190803590602001909291908035906020019092919080359060200190929190803573ffffffffffffffffffffffffffffffffffffffff16906020019092919080359060200190929190505050612983565b6040518082815260200191505060405180910390f35b348015610ce357600080fd5b50610d8e600480360360e0811015610cfa57600080fd5b81019080803573ffffffffffffffffffffffffffffffffffffffff169060200190929190803573ffffffffffffffffffffffffffffffffffffffff169060200190929190803590602001909291908035906020019092919080359060200190929190803573ffffffffffffffffffffffffffffffffffffffff16906020019092919080359060200190929190505050612b93565b604051808381526020018281526020019250505060405180910390f35b348015610db757600080fd5b50610dc0612f14565b604051808273ffffffffffffffffffffffffffffffffffffffff1673ffffffffffffffffffffffffffffffffffffffff16815260200191505060405180910390f35b348015610e0e57600080fd5b50610ecf60048036036040811015610e2557600080fd5b810190808035906020019092919080359060200190640100000000811115610e4c57600080fd5b820183602082011115610e5e57600080fd5b80359060200191846020830284011164010000000083111715610e8057600080fd5b919080806020026020016040519081016040528093929190818152602001838360200280828437600081840152601f19601f820116905080830192505050505050509192919290505050612f38565b6040518080602001828103825283818151815260200191508051906020019060200280838360005b83811015610f12578082015181840152602081019050610ef7565b505050509050019250505060405180910390f35b348015610f3257600080fd5b50610feb6004803603610140811015610f4a57600080fd5b81019080803573ffffffffffffffffffffffffffffffffffffffff169060200190929190803590602001909291908035906020019092919080359060200190929190803573ffffffffffffffffffffffffffffffffffffffff16906020019092919080359060200190929190803515159060200190929190803560ff1690602001909291908035906020019092919080359060200190929190505050612f6d565b604051808381526020018281526020019250505060405180910390f35b34801561101457600080fd5b506110ca600480360361010081101561102c57600080fd5b81019080803573ffffffffffffffffffffffffffffffffffffffff169060200190929190803573ffffffffffffffffffffffffffffffffffffffff16906020019092919080359060200190929190803590602001909291908035906020019092919080359060200190929190803573ffffffffffffffffffffffffffffffffffffffff16906020019092919080359060200190929190505050613110565b60405180848152602001838152602001828152602001935050505060405180910390f35b611178600480360360c081101561110457600080fd5b81019080803573ffffffffffffffffffffffffffffffffffffffff169060200190929190803590602001909291908035906020019092919080359060200190929190803573ffffffffffffffffffffffffffffffffffffffff169060200190929190803590602001909291905050506132b5565b60405180848152602001838152602001828152602001935050505060405180910390f35b611247600480360360808110156111b257600080fd5b8101908080359060200190929190803590602001906401000000008111156111d957600080fd5b8201836020820111156111eb57600080fd5b8035906020019184602083028401116401000000008311171561120d57600080fd5b9091929391929390803573ffffffffffffffffffffffffffffffffffffffff1690602001909291908035906020019092919050505061360a565b6040518080602001828103825283818151815260200191508051906020019060200280838360005b8381101561128a57808201518184015260208101905061126f565b505050509050019250505060405180910390f35b6000808242811015611318576040517f08c379a00000000000000000000000000000000000000000000000000000000081526004018080602001828103825260138152602001807f4e696674526f757465723a20455850495245440000000000000000000000000081525060200191505060405180910390fd5b611347897f00000000000000000000000000000000000000000000000000000000000000008a8a8a308a612b93565b809350819450505061135a898685613ae8565b7f000000000000000000000000000000000000000000000000000000000000000073ffffffffffffffffffffffffffffffffffffffff16632e1a7d4d836040518263ffffffff1660e01b815260040180828152602001915050600060405180830381600087803b1580156113cd57600080fd5b505af11580156113e1573d6000803e3d6000fd5b505050506113ef8583613ce1565b50965096945050505050565b6000611408848484613e40565b90509392505050565b6060814281101561148a576040517f08c379a00000000000000000000000000000000000000000000000000000000081526004018080602001828103825260138152602001807f4e696674526f757465723a20455850495245440000000000000000000000000081525060200191505060405180910390fd5b7f000000000000000000000000000000000000000000000000000000000000000073ffffffffffffffffffffffffffffffffffffffff168686600189899050038181106114d357fe5b9050602002013573ffffffffffffffffffffffffffffffffffffffff1673ffffffffffffffffffffffffffffffffffffffff1614611579576040517f08c379a00000000000000000000000000000000000000000000000000000000081526004018080602001828103825260188152602001807f4e696674526f757465723a20494e56414c49445f50415448000000000000000081525060200191505060405180910390fd5b6115e57f000000000000000000000000000000000000000000000000000000000000000089888880806020026020016040519081016040528093929190818152602001838360200280828437600081840152601f19601f82011690508083019250505050505050613f70565b915086826001845103815181106115f857fe5b60200260200101511015611657576040517f08c379a00000000000000000000000000000000000000000000000000000000081526004018080602001828103825260268152602001806153a86026913960400191505060405180910390fd5b61171c8686600081811061166757fe5b9050602002013573ffffffffffffffffffffffffffffffffffffffff16336117027f00000000000000000000000000000000000000000000000000000000000000008a8a60008181106116b657fe5b9050602002013573ffffffffffffffffffffffffffffffffffffffff168b8b60018181106116e057fe5b9050602002013573ffffffffffffffffffffffffffffffffffffffff166140e8565b8560008151811061170f57fe5b6020026020010151614243565b61176882878780806020026020016040519081016040528093929190818152602001838360200280828437600081840152601f19601f8201169050808301925050505050505030614454565b7f000000000000000000000000000000000000000000000000000000000000000073ffffffffffffffffffffffffffffffffffffffff16632e1a7d4d836001855103815181106117b457fe5b60200260200101516040518263ffffffff1660e01b815260040180828152602001915050600060405180830381600087803b1580156117f257600080fd5b505af1158015611806573d6000803e3d6000fd5b5050505061182b848360018551038151811061181e57fe5b6020026020010151613ce1565b509695505050505050565b60606118637f000000000000000000000000000000000000000000000000000000000000000084846146ff565b905092915050565b600080600061189b7f00000000000000000000000000000000000000000000000000000000000000008f8f6140e8565b90506000876118aa578c6118cc565b7fffffffffffffffffffffffffffffffffffffffffffffffffffffffffffffffff5b90508173ffffffffffffffffffffffffffffffffffffffff1663d505accf3330848d8c8c8c6040518863ffffffff1660e01b8152600401808873ffffffffffffffffffffffffffffffffffffffff1673ffffffffffffffffffffffffffffffffffffffff1681526020018773ffffffffffffffffffffffffffffffffffffffff1673ffffffffffffffffffffffffffffffffffffffff1681526020018681526020018581526020018460ff1660ff168152602001838152602001828152602001975050505050505050600060405180830381600087803b1580156119af57600080fd5b505af11580156119c3573d6000803e3d6000fd5b505050506119d68f8f8f8f8f8f8f612b93565b809450819550505050509b509b9950505050505050505050565b60608142811015611a69576040517f08c379a00000000000000000000000000000000000000000000000000000000081526004018080602001828103825260138152602001807f4e696674526f757465723a20455850495245440000000000000000000000000081525060200191505060405180910390fd5b611ad57f000000000000000000000000000000000000000000000000000000000000000089888880806020026020016040519081016040528093929190818152602001838360200280828437600081840152601f19601f82011690508083019250505050505050613f70565b91508682600184510381518110611ae857fe5b60200260200101511015611b47576040517f08c379a00000000000000000000000000000000000000000000000000000000081526004018080602001828103825260268152602001806153a86026913960400191505060405180910390fd5b611c0c86866000818110611b5757fe5b9050602002013573ffffffffffffffffffffffffffffffffffffffff1633611bf27f00000000000000000000000000000000000000000000000000000000000000008a8a6000818110611ba657fe5b9050602002013573ffffffffffffffffffffffffffffffffffffffff168b8b6001818110611bd057fe5b9050602002013573ffffffffffffffffffffffffffffffffffffffff166140e8565b85600081518110611bff57fe5b6020026020010151614243565b611c5882878780806020026020016040519081016040528093929190818152602001838360200280828437600081840152601f19601f8201169050808301925050505050505086614454565b509695505050505050565b60608142811015611cdc576040517f08c379a00000000000000000000000000000000000000000000000000000000081526004018080602001828103825260138152602001807f4e696674526f757465723a20455850495245440000000000000000000000000081525060200191505060405180910390fd5b7f000000000000000000000000000000000000000000000000000000000000000073ffffffffffffffffffffffffffffffffffffffff16868660018989905003818110611d2557fe5b9050602002013573ffffffffffffffffffffffffffffffffffffffff1673ffffffffffffffffffffffffffffffffffffffff1614611dcb576040517f08c379a00000000000000000000000000000000000000000000000000000000081526004018080602001828103825260188152602001807f4e696674526f757465723a20494e56414c49445f50415448000000000000000081525060200191505060405180910390fd5b611e377f000000000000000000000000000000000000000000000000000000000000000089888880806020026020016040519081016040528093929190818152602001838360200280828437600081840152601f19601f820116905080830192505050505050506146ff565b91508682600081518110611e4757fe5b60200260200101511115611ea6576040517f08c379a00000000000000000000000000000000000000000000000000000000081526004018080602001828103825260228152602001806153866022913960400191505060405180910390fd5b611f6b86866000818110611eb657fe5b9050602002013573ffffffffffffffffffffffffffffffffffffffff1633611f517f00000000000000000000000000000000000000000000000000000000000000008a8a6000818110611f0557fe5b9050602002013573ffffffffffffffffffffffffffffffffffffffff168b8b6001818110611f2f57fe5b9050602002013573ffffffffffffffffffffffffffffffffffffffff166140e8565b85600081518110611f5e57fe5b6020026020010151614243565b611fb782878780806020026020016040519081016040528093929190818152602001838360200280828437600081840152601f19601f8201169050808301925050505050505030614454565b7f000000000000000000000000000000000000000000000000000000000000000073ffffffffffffffffffffffffffffffffffffffff16632e1a7d4d8360018551038151811061200357fe5b60200260200101516040518263ffffffff1660e01b815260040180828152602001915050600060405180830381600087803b15801561204157600080fd5b505af1158015612055573d6000803e3d6000fd5b5050505061207a848360018551038151811061206d57fe5b6020026020010151613ce1565b509695505050505050565b6000806120d37f00000000000000000000000000000000000000000000000000000000000000008d7f00000000000000000000000000000000000000000000000000000000000000006140e8565b90506000866120e2578b612104565b7fffffffffffffffffffffffffffffffffffffffffffffffffffffffffffffffff5b90508173ffffffffffffffffffffffffffffffffffffffff1663d505accf3330848c8b8b8b6040518863ffffffff1660e01b8152600401808873ffffffffffffffffffffffffffffffffffffffff1673ffffffffffffffffffffffffffffffffffffffff1681526020018773ffffffffffffffffffffffffffffffffffffffff1673ffffffffffffffffffffffffffffffffffffffff1681526020018681526020018581526020018460ff1660ff168152602001838152602001828152602001975050505050505050600060405180830381600087803b1580156121e757600080fd5b505af11580156121fb573d6000803e3d6000fd5b5050505061220d8d8d8d8d8d8d612983565b925050509a9950505050505050505050565b60608142811015612298576040517f08c379a00000000000000000000000000000000000000000000000000000000081526004018080602001828103825260138152602001807f4e696674526f757465723a20455850495245440000000000000000000000000081525060200191505060405180910390fd5b7f000000000000000000000000000000000000000000000000000000000000000073ffffffffffffffffffffffffffffffffffffffff16868660008181106122dc57fe5b9050602002013573ffffffffffffffffffffffffffffffffffffffff1673ffffffffffffffffffffffffffffffffffffffff1614612382576040517f08c379a00000000000000000000000000000000000000000000000000000000081526004018080602001828103825260188152602001807f4e696674526f757465723a20494e56414c49445f50415448000000000000000081525060200191505060405180910390fd5b6123ee7f000000000000000000000000000000000000000000000000000000000000000034888880806020026020016040519081016040528093929190818152602001838360200280828437600081840152601f19601f82011690508083019250505050505050613f70565b9150868260018451038151811061240157fe5b60200260200101511015612460576040517f08c379a00000000000000000000000000000000000000000000000000000000081526004018080602001828103825260268152602001806153a86026913960400191505060405180910390fd5b7f000000000000000000000000000000000000000000000000000000000000000073ffffffffffffffffffffffffffffffffffffffff1663d0e30db0836000815181106124a957fe5b60200260200101516040518263ffffffff1660e01b81526004016000604051808303818588803b1580156124dc57600080fd5b505af11580156124f0573d6000803e3d6000fd5b50505050507f000000000000000000000000000000000000000000000000000000000000000073ffffffffffffffffffffffffffffffffffffffff1663a9059cbb6125ae7f00000000000000000000000000000000000000000000000000000000000000008989600081811061256257fe5b9050602002013573ffffffffffffffffffffffffffffffffffffffff168a8a600181811061258c57fe5b9050602002013573ffffffffffffffffffffffffffffffffffffffff166140e8565b846000815181106125bb57fe5b60200260200101516040518363ffffffff1660e01b8152600401808373ffffffffffffffffffffffffffffffffffffffff1673ffffffffffffffffffffffffffffffffffffffff16815260200182815260200192505050602060405180830381600087803b15801561262c57600080fd5b505af1158015612640573d6000803e3d6000fd5b505050506040513d602081101561265657600080fd5b810190808051906020019092919050505061266d57fe5b6126b982878780806020026020016040519081016040528093929190818152602001838360200280828437600081840152601f19601f8201169050808301925050505050505086614454565b5095945050505050565b60006126d084848461487f565b90509392505050565b60608142811015612752576040517f08c379a00000000000000000000000000000000000000000000000000000000081526004018080602001828103825260138152602001807f4e696674526f757465723a20455850495245440000000000000000000000000081525060200191505060405180910390fd5b6127be7f000000000000000000000000000000000000000000000000000000000000000089888880806020026020016040519081016040528093929190818152602001838360200280828437600081840152601f19601f820116905080830192505050505050506146ff565b915086826000815181106127ce57fe5b6020026020010151111561282d576040517f08c379a00000000000000000000000000000000000000000000000000000000081526004018080602001828103825260228152602001806153866022913960400191505060405180910390fd5b6128f28686600081811061283d57fe5b9050602002013573ffffffffffffffffffffffffffffffffffffffff16336128d87f00000000000000000000000000000000000000000000000000000000000000008a8a600081811061288c57fe5b9050602002013573ffffffffffffffffffffffffffffffffffffffff168b8b60018181106128b657fe5b9050602002013573ffffffffffffffffffffffffffffffffffffffff166140e8565b856000815181106128e557fe5b6020026020010151614243565b61293e82878780806020026020016040519081016040528093929190818152602001838360200280828437600081840152601f19601f8201169050808301925050505050505086614454565b509695505050505050565b7f000000000000000000000000000000000000000000000000000000000000000081565b600061297a8484846149bc565b90509392505050565b600081428110156129fc576040517f08c379a00000000000000000000000000000000000000000000000000000000081526004018080602001828103825260138152602001807f4e696674526f757465723a20455850495245440000000000000000000000000081525060200191505060405180910390fd5b612a2b887f00000000000000000000000000000000000000000000000000000000000000008989893089612b93565b905080925050612af388858a73ffffffffffffffffffffffffffffffffffffffff166370a08231306040518263ffffffff1660e01b8152600401808273ffffffffffffffffffffffffffffffffffffffff1673ffffffffffffffffffffffffffffffffffffffff16815260200191505060206040518083038186803b158015612ab357600080fd5b505afa158015612ac7573d6000803e3d6000fd5b505050506040513d6020811015612add57600080fd5b8101908080519060200190929190505050613ae8565b7f000000000000000000000000000000000000000000000000000000000000000073ffffffffffffffffffffffffffffffffffffffff16632e1a7d4d836040518263ffffffff1660e01b815260040180828152602001915050600060405180830381600087803b158015612b6657600080fd5b505af1158015612b7a573d6000803e3d6000fd5b50505050612b888483613ce1565b509695505050505050565b6000808242811015612c0d576040517f08c379a00000000000000000000000000000000000000000000000000000000081526004018080602001828103825260138152602001807f4e696674526f757465723a20455850495245440000000000000000000000000081525060200191505060405180910390fd5b6000612c3a7f00000000000000000000000000000000000000000000000000000000000000008c8c6140e8565b90508073ffffffffffffffffffffffffffffffffffffffff166323b872dd33838c6040518463ffffffff1660e01b8152600401808473ffffffffffffffffffffffffffffffffffffffff1673ffffffffffffffffffffffffffffffffffffffff1681526020018373ffffffffffffffffffffffffffffffffffffffff1673ffffffffffffffffffffffffffffffffffffffff1681526020018281526020019350505050602060405180830381600087803b158015612cf757600080fd5b505af1158015612d0b573d6000803e3d6000fd5b505050506040513d6020811015612d2157600080fd5b8101908080519060200190929190505050506000808273ffffffffffffffffffffffffffffffffffffffff166389afcb44896040518263ffffffff1660e01b8152600401808273ffffffffffffffffffffffffffffffffffffffff1673ffffffffffffffffffffffffffffffffffffffff1681526020019150506040805180830381600087803b158015612db457600080fd5b505af1158015612dc8573d6000803e3d6000fd5b505050506040513d6040811015612dde57600080fd5b810190808051906020019092919080519060200190929190505050915091506000612e098e8e614abd565b5090508073ffffffffffffffffffffffffffffffffffffffff168e73ffffffffffffffffffffffffffffffffffffffff1614612e46578183612e49565b82825b80975081985050508a871015612eaa576040517f08c379a00000000000000000000000000000000000000000000000000000000081526004018080602001828103825260218152602001806153186021913960400191505060405180910390fd5b89861015612f03576040517f08c379a00000000000000000000000000000000000000000000000000000000081526004018080602001828103825260218152602001806152d46021913960400191505060405180910390fd5b505050505097509795505050505050565b7f000000000000000000000000000000000000000000000000000000000000000081565b6060612f657f00000000000000000000000000000000000000000000000000000000000000008484613f70565b905092915050565b6000806000612fbd7f00000000000000000000000000000000000000000000000000000000000000008e7f00000000000000000000000000000000000000000000000000000000000000006140e8565b9050600087612fcc578c612fee565b7fffffffffffffffffffffffffffffffffffffffffffffffffffffffffffffffff5b90508173ffffffffffffffffffffffffffffffffffffffff1663d505accf3330848d8c8c8c6040518863ffffffff1660e01b8152600401808873ffffffffffffffffffffffffffffffffffffffff1673ffffffffffffffffffffffffffffffffffffffff1681526020018773ffffffffffffffffffffffffffffffffffffffff1673ffffffffffffffffffffffffffffffffffffffff1681526020018681526020018581526020018460ff1660ff168152602001838152602001828152602001975050505050505050600060405180830381600087803b1580156130d157600080fd5b505af11580156130e5573d6000803e3d6000fd5b505050506130f78e8e8e8e8e8e61129e565b809450819550505050509a509a98505050505050505050565b6000806000834281101561318c576040517f08c379a00000000000000000000000000000000000000000000000000000000081526004018080602001828103825260138152602001807f4e696674526f757465723a20455850495245440000000000000000000000000081525060200191505060405180910390fd5b61319a8c8c8c8c8c8c614c51565b809450819550505060006131cf7f00000000000000000000000000000000000000000000000000000000000000008e8e6140e8565b90506131dd8d338388614243565b6131e98c338387614243565b8073ffffffffffffffffffffffffffffffffffffffff16636a627842886040518263ffffffff1660e01b8152600401808273ffffffffffffffffffffffffffffffffffffffff1673ffffffffffffffffffffffffffffffffffffffff168152602001915050602060405180830381600087803b15801561326857600080fd5b505af115801561327c573d6000803e3d6000fd5b505050506040513d602081101561329257600080fd5b810190808051906020019092919050505092505050985098509895505050505050565b60008060008342811015613331576040517f08c379a00000000000000000000000000000000000000000000000000000000081526004018080602001828103825260138152602001807f4e696674526f757465723a20455850495245440000000000000000000000000081525060200191505060405180910390fd5b61335f8a7f00000000000000000000000000000000000000000000000000000000000000008b348c8c614c51565b809450819550505060006133b47f00000000000000000000000000000000000000000000000000000000000000008c7f00000000000000000000000000000000000000000000000000000000000000006140e8565b90506133c28b338388614243565b7f000000000000000000000000000000000000000000000000000000000000000073ffffffffffffffffffffffffffffffffffffffff1663d0e30db0856040518263ffffffff1660e01b81526004016000604051808303818588803b15801561342a57600080fd5b505af115801561343e573d6000803e3d6000fd5b50505050507f000000000000000000000000000000000000000000000000000000000000000073ffffffffffffffffffffffffffffffffffffffff1663a9059cbb82866040518363ffffffff1660e01b8152600401808373ffffffffffffffffffffffffffffffffffffffff1673ffffffffffffffffffffffffffffffffffffffff16815260200182815260200192505050602060405180830381600087803b1580156134ea57600080fd5b505af11580156134fe573d6000803e3d6000fd5b505050506040513d602081101561351457600080fd5b810190808051906020019092919050505061352b57fe5b8073ffffffffffffffffffffffffffffffffffffffff16636a627842886040518263ffffffff1660e01b8152600401808273ffffffffffffffffffffffffffffffffffffffff1673ffffffffffffffffffffffffffffffffffffffff168152602001915050602060405180830381600087803b1580156135aa57600080fd5b505af11580156135be573d6000803e3d6000fd5b505050506040513d60208110156135d457600080fd5b81019080805190602001909291905050509250833411156135fc576135fb33853403613ce1565b5b505096509650969350505050565b60608142811015613683576040517f08c379a00000000000000000000000000000000000000000000000000000000081526004018080602001828103825260138152602001807f4e696674526f757465723a20455850495245440000000000000000000000000081525060200191505060405180910390fd5b7f000000000000000000000000000000000000000000000000000000000000000073ffffffffffffffffffffffffffffffffffffffff16868660008181106136c757fe5b9050602002013573ffffffffffffffffffffffffffffffffffffffff1673ffffffffffffffffffffffffffffffffffffffff161461376d576040517f08c379a00000000000000000000000000000000000000000000000000000000081526004018080602001828103825260188152602001807f4e696674526f757465723a20494e56414c49445f50415448000000000000000081525060200191505060405180910390fd5b6137d97f000000000000000000000000000000000000000000000000000000000000000088888880806020026020016040519081016040528093929190818152602001838360200280828437600081840152601f19601f820116905080830192505050505050506146ff565b915034826000815181106137e957fe5b60200260200101511115613848576040517f08c379a00000000000000000000000000000000000000000000000000000000081526004018080602001828103825260228152602001806153866022913960400191505060405180910390fd5b7f000000000000000000000000000000000000000000000000000000000000000073ffffffffffffffffffffffffffffffffffffffff1663d0e30db08360008151811061389157fe5b60200260200101516040518263ffffffff1660e01b81526004016000604051808303818588803b1580156138c457600080fd5b505af11580156138d8573d6000803e3d6000fd5b50505050507f000000000000000000000000000000000000000000000000000000000000000073ffffffffffffffffffffffffffffffffffffffff1663a9059cbb6139967f00000000000000000000000000000000000000000000000000000000000000008989600081811061394a57fe5b9050602002013573ffffffffffffffffffffffffffffffffffffffff168a8a600181811061397457fe5b9050602002013573ffffffffffffffffffffffffffffffffffffffff166140e8565b846000815181106139a357fe5b60200260200101516040518363ffffffff1660e01b8152600401808373ffffffffffffffffffffffffffffffffffffffff1673ffffffffffffffffffffffffffffffffffffffff16815260200182815260200192505050602060405180830381600087803b158015613a1457600080fd5b505af1158015613a28573d6000803e3d6000fd5b505050506040513d6020811015613a3e57600080fd5b8101908080519060200190929190505050613a5557fe5b613aa182878780806020026020016040519081016040528093929190818152602001838360200280828437600081840152601f19601f8201169050808301925050505050505086614454565b81600081518110613aae57fe5b6020026020010151341115613ade57613add3383600081518110613ace57fe5b60200260200101513403613ce1565b5b5095945050505050565b600060608473ffffffffffffffffffffffffffffffffffffffff1663a9059cbb8585604051602401808373ffffffffffffffffffffffffffffffffffffffff1673ffffffffffffffffffffffffffffffffffffffff168152602001828152602001925050506040516020818303038152906040529060e01b6020820180517bffffffffffffffffffffffffffffffffffffffffffffffffffffffff83818316178352505050506040518082805190602001908083835b60208310613bc15780518252602082019150602081019050602083039250613b9e565b6001836020036101000a0380198251168184511680821785525050505050509050019150506000604051808303816000865af19150503d8060008114613c23576040519150601f19603f3d011682016040523d82523d6000602084013e613c28565b606091505b5091509150818015613c685750600081511480613c675750808060200190516020811015613c5557600080fd5b81019080805190602001909291905050505b5b613cda576040517f08c379a000000000000000000000000000000000000000000000000000000000815260040180806020018281038252601f8152602001807f5472616e7366657248656c7065723a205452414e534645525f4641494c45440081525060200191505060405180910390fd5b5050505050565b60008273ffffffffffffffffffffffffffffffffffffffff1682600067ffffffffffffffff81118015613d1357600080fd5b506040519080825280601f01601f191660200182016040528015613d465781602001600182028036833780820191505090505b506040518082805190602001908083835b60208310613d7a5780518252602082019150602081019050602083039250613d57565b6001836020036101000a03801982511681845116808217855250505050505090500191505060006040518083038185875af1925050503d8060008114613ddc576040519150601f19603f3d011682016040523d82523d6000602084013e613de1565b606091505b5050905080613e3b576040517f08c379a00000000000000000000000000000000000000000000000000000000081526004018080602001828103825260238152602001806153ce6023913960400191505060405180910390fd5b505050565b6000808411613e9a576040517f08c379a00000000000000000000000000000000000000000000000000000000081526004018080602001828103825260268152602001806153396026913960400191505060405180910390fd5b600083118015613eaa5750600082115b613eff576040517f08c379a00000000000000000000000000000000000000000000000000000000081526004018080602001828103825260238152602001806152f56023913960400191505060405180910390fd5b6000613f166103e68661500390919063ffffffff16565b90506000613f2d848361500390919063ffffffff16565b90506000613f5883613f4a6103e88961500390919063ffffffff16565b61509890919063ffffffff16565b9050808281613f6357fe5b0493505050509392505050565b6060600282511015613fea576040517f08c379a00000000000000000000000000000000000000000000000000000000081526004018080602001828103825260198152602001807f4e6966744c6962726172793a20494e56414c49445f504154480000000000000081525060200191505060405180910390fd5b815167ffffffffffffffff8111801561400257600080fd5b506040519080825280602002602001820160405280156140315781602001602082028036833780820191505090505b509050828160008151811061404257fe5b60200260200101818152505060005b60018351038110156140e0576000806140948786858151811061407057fe5b602002602001015187600187018151811061408757fe5b602002602001015161511b565b915091506140b68484815181106140a757fe5b60200260200101518383613e40565b8460018501815181106140c557fe5b60200260200101818152505050508080600101915050614051565b509392505050565b60008060006140f78585614abd565b91509150858282604051602001808373ffffffffffffffffffffffffffffffffffffffff1673ffffffffffffffffffffffffffffffffffffffff1660601b81526014018273ffffffffffffffffffffffffffffffffffffffff1673ffffffffffffffffffffffffffffffffffffffff1660601b8152601401925050506040516020818303038152906040528051906020012060405160200180807fff000000000000000000000000000000000000000000000000000000000000008152506001018373ffffffffffffffffffffffffffffffffffffffff1673ffffffffffffffffffffffffffffffffffffffff1660601b8152601401828152602001807f1be6d0069a66910bee423c2b8f27563ac9bd0648f55fcdbc63dbe8dc237fd71e815250602001925050506040516020818303038152906040528051906020012060001c925050509392505050565b600060608573ffffffffffffffffffffffffffffffffffffffff166323b872dd868686604051602401808473ffffffffffffffffffffffffffffffffffffffff1673ffffffffffffffffffffffffffffffffffffffff1681526020018373ffffffffffffffffffffffffffffffffffffffff1673ffffffffffffffffffffffffffffffffffffffff16815260200182815260200193505050506040516020818303038152906040529060e01b6020820180517bffffffffffffffffffffffffffffffffffffffffffffffffffffffff83818316178352505050506040518082805190602001908083835b60208310614350578051825260208201915060208101905060208303925061432d565b6001836020036101000a0380198251168184511680821785525050505050509050019150506000604051808303816000865af19150503d80600081146143b2576040519150601f19603f3d011682016040523d82523d6000602084013e6143b7565b606091505b50915091508180156143f757506000815114806143f657508080602001905160208110156143e457600080fd5b81019080805190602001909291905050505b5b61444c576040517f08c379a00000000000000000000000000000000000000000000000000000000081526004018080602001828103825260248152602001806153f16024913960400191505060405180910390fd5b505050505050565b60005b60018351038110156146f95760008084838151811061447257fe5b602002602001015185600185018151811061448957fe5b60200260200101519150915060006144a18383614abd565b50905060008760018601815181106144b557fe5b602002602001015190506000808373ffffffffffffffffffffffffffffffffffffffff168673ffffffffffffffffffffffffffffffffffffffff16146144fd57826000614501565b6000835b91509150600060028a51038810614518578861455a565b6145597f0000000000000000000000000000000000000000000000000000000000000000878c60028c018151811061454c57fe5b60200260200101516140e8565b5b90506145877f000000000000000000000000000000000000000000000000000000000000000088886140e8565b73ffffffffffffffffffffffffffffffffffffffff1663022c0d9f848484600067ffffffffffffffff811180156145bd57600080fd5b506040519080825280601f01601f1916602001820160405280156145f05781602001600182028036833780820191505090505b506040518563ffffffff1660e01b8152600401808581526020018481526020018373ffffffffffffffffffffffffffffffffffffffff1673ffffffffffffffffffffffffffffffffffffffff16815260200180602001828103825283818151815260200191508051906020019080838360005b8381101561467e578082015181840152602081019050614663565b50505050905090810190601f1680156146ab5780820380516001836020036101000a031916815260200191505b5095505050505050600060405180830381600087803b1580156146cd57600080fd5b505af11580156146e1573d6000803e3d6000fd5b50505050505050505050508080600101915050614457565b50505050565b6060600282511015614779576040517f08c379a00000000000000000000000000000000000000000000000000000000081526004018080602001828103825260198152602001807f4e6966744c6962726172793a20494e56414c49445f504154480000000000000081525060200191505060405180910390fd5b815167ffffffffffffffff8111801561479157600080fd5b506040519080825280602002602001820160405280156147c05781602001602082028036833780820191505090505b50905082816001835103815181106147d457fe5b6020026020010181815250506000600183510390505b60008111156148775760008061482a8786600186038151811061480957fe5b602002602001015187868151811061481d57fe5b602002602001015161511b565b9150915061484c84848151811061483d57fe5b6020026020010151838361487f565b84600185038151811061485b57fe5b60200260200101818152505050508080600190039150506147ea565b509392505050565b60008084116148d9576040517f08c379a000000000000000000000000000000000000000000000000000000000815260040180806020018281038252602781526020018061535f6027913960400191505060405180910390fd5b6000831180156148e95750600082115b61493e576040517f08c379a00000000000000000000000000000000000000000000000000000000081526004018080602001828103825260238152602001806152f56023913960400191505060405180910390fd5b60006149676103e8614959878761500390919063ffffffff16565b61500390919063ffffffff16565b905060006149926103e6614984888761525090919063ffffffff16565b61500390919063ffffffff16565b90506149b160018284816149a257fe5b0461509890919063ffffffff16565b925050509392505050565b6000808411614a33576040517f08c379a00000000000000000000000000000000000000000000000000000000081526004018080602001828103825260208152602001807f4e6966744c6962726172793a20494e53554646494349454e545f414d4f554e5481525060200191505060405180910390fd5b600083118015614a435750600082115b614a98576040517f08c379a00000000000000000000000000000000000000000000000000000000081526004018080602001828103825260238152602001806152f56023913960400191505060405180910390fd5b82614aac838661500390919063ffffffff16565b81614ab357fe5b0490509392505050565b6000808273ffffffffffffffffffffffffffffffffffffffff168473ffffffffffffffffffffffffffffffffffffffff161415614b62576040517f08c379a00000000000000000000000000000000000000000000000000000000081526004018080602001828103825260208152602001807f4e6966744c6962726172793a204944454e544943414c5f41444452455353455381525060200191505060405180910390fd5b8273ffffffffffffffffffffffffffffffffffffffff168473ffffffffffffffffffffffffffffffffffffffff1610614b9c578284614b9f565b83835b8092508193505050600073ffffffffffffffffffffffffffffffffffffffff168273ffffffffffffffffffffffffffffffffffffffff161415614c4a576040517f08c379a00000000000000000000000000000000000000000000000000000000081526004018080602001828103825260198152602001807f4e6966744c6962726172793a205a45524f5f414444524553530000000000000081525060200191505060405180910390fd5b9250929050565b600080600073ffffffffffffffffffffffffffffffffffffffff167f000000000000000000000000000000000000000000000000000000000000000073ffffffffffffffffffffffffffffffffffffffff1663e6a439058a8a6040518363ffffffff1660e01b8152600401808373ffffffffffffffffffffffffffffffffffffffff1673ffffffffffffffffffffffffffffffffffffffff1681526020018273ffffffffffffffffffffffffffffffffffffffff1673ffffffffffffffffffffffffffffffffffffffff1681526020019250505060206040518083038186803b158015614d3d57600080fd5b505afa158015614d51573d6000803e3d6000fd5b505050506040513d6020811015614d6757600080fd5b810190808051906020019092919050505073ffffffffffffffffffffffffffffffffffffffff161415614ea4577f000000000000000000000000000000000000000000000000000000000000000073ffffffffffffffffffffffffffffffffffffffff1663c9c6539689896040518363ffffffff1660e01b8152600401808373ffffffffffffffffffffffffffffffffffffffff1673ffffffffffffffffffffffffffffffffffffffff1681526020018273ffffffffffffffffffffffffffffffffffffffff1673ffffffffffffffffffffffffffffffffffffffff16815260200192505050602060405180830381600087803b158015614e6757600080fd5b505af1158015614e7b573d6000803e3d6000fd5b505050506040513d6020811015614e9157600080fd5b8101908080519060200190929190505050505b600080614ed27f00000000000000000000000000000000000000000000000000000000000000008b8b61511b565b91509150600082148015614ee65750600081145b15614efa5787878094508195505050614ff6565b6000614f078984846149bc565b9050878111614f785785811015614f69576040517f08c379a00000000000000000000000000000000000000000000000000000000081526004018080602001828103825260218152602001806152d46021913960400191505060405180910390fd5b88818095508196505050614ff4565b6000614f858984866149bc565b9050898111614ff25787811015614fe7576040517f08c379a00000000000000000000000000000000000000000000000000000000081526004018080602001828103825260218152602001806153186021913960400191505060405180910390fd5b808980965081975050505b505b505b5050965096945050505050565b600080821480615020575082828385029250828161501d57fe5b04145b615092576040517f08c379a00000000000000000000000000000000000000000000000000000000081526004018080602001828103825260148152602001807f64732d6d6174682d6d756c2d6f766572666c6f7700000000000000000000000081525060200191505060405180910390fd5b92915050565b6000828284019150811015615115576040517f08c379a00000000000000000000000000000000000000000000000000000000081526004018080602001828103825260148152602001807f64732d6d6174682d6164642d6f766572666c6f7700000000000000000000000081525060200191505060405180910390fd5b92915050565b600080600061512a8585614abd565b5090506151388686866140e8565b506000806151478888886140e8565b73ffffffffffffffffffffffffffffffffffffffff16630902f1ac6040518163ffffffff1660e01b815260040160606040518083038186803b15801561518c57600080fd5b505afa1580156151a0573d6000803e3d6000fd5b505050506040513d60608110156151b657600080fd5b81019080805190602001909291908051906020019092919080519060200190929190505050506dffffffffffffffffffffffffffff1691506dffffffffffffffffffffffffffff1691508273ffffffffffffffffffffffffffffffffffffffff168773ffffffffffffffffffffffffffffffffffffffff161461523a57808261523d565b81815b8095508196505050505050935093915050565b60008282840391508111156152cd576040517f08c379a00000000000000000000000000000000000000000000000000000000081526004018080602001828103825260158152602001807f64732d6d6174682d7375622d756e646572666c6f77000000000000000000000081525060200191505060405180910390fd5b9291505056fe4e696674526f757465723a20494e53554646494349454e545f425f414d4f554e544e6966744c6962726172793a20494e53554646494349454e545f4c49515549444954594e696674526f757465723a20494e53554646494349454e545f415f414d4f554e544e6966744c6962726172793a20494e53554646494349454e545f494e5055545f414d4f554e544e6966744c6962726172793a20494e53554646494349454e545f4f55545055545f414d4f554e544e696674526f757465723a204558434553534956455f494e5055545f414d4f554e544e696674526f757465723a20494e53554646494349454e545f4f55545055545f414d4f554e545472616e7366657248656c7065723a204554485f5452414e534645525f4641494c45445472616e7366657248656c7065723a205452414e534645525f46524f4d5f4641494c4544a2646970667358221220917439a88402e2fa94094b7bfb8348a9a88b7372bccfb354df7204e96e5a952e64736f6c63430006060033",
  "immutableReferences": {
    "223": [
      {
        "length": 32,
        "start": 5502
      },
      {
        "length": 32,
        "start": 5770
      },
      {
        "length": 32,
        "start": 6205
      },
      {
        "length": 32,
        "start": 6261
      },
      {
        "length": 32,
        "start": 6766
      },
      {
        "length": 32,
        "start": 7034
      },
      {
        "length": 32,
        "start": 7632
      },
      {
        "length": 32,
        "start": 7897
      },
      {
        "length": 32,
        "start": 8333
      },
      {
        "length": 32,
        "start": 9095
      },
      {
        "length": 32,
        "start": 9526
      },
      {
        "length": 32,
        "start": 10071
      },
      {
        "length": 32,
        "start": 10336
      },
      {
        "length": 32,
        "start": 11284
      },
      {
        "length": 32,
        "start": 12054
      },
      {
        "length": 32,
        "start": 12095
      },
      {
        "length": 32,
        "start": 12151
      },
      {
        "length": 32,
        "start": 12713
      },
      {
        "length": 32,
        "start": 13166
      },
      {
        "length": 32,
        "start": 14194
      },
      {
        "length": 32,
        "start": 14622
      },
      {
        "length": 32,
        "start": 17693
      },
      {
        "length": 32,
        "start": 17761
      },
      {
        "length": 32,
        "start": 19566
      },
      {
        "length": 32,
        "start": 19862
      },
      {
        "length": 32,
        "start": 20140
      }
    ],
    "226": [
      {
        "length": 32,
        "start": 309
      },
      {
        "length": 32,
        "start": 4894
      },
      {
        "length": 32,
        "start": 4956
      },
      {
        "length": 32,
        "start": 5260
      },
      {
        "length": 32,
        "start": 5994
      },
      {
        "length": 32,
        "start": 7390
      },
      {
        "length": 32,
        "start": 8121
      },
      {
        "length": 32,
        "start": 8367
      },
      {
        "length": 32,
        "start": 8858
      },
      {
        "length": 32,
        "start": 9314
      },
      {
        "length": 32,
        "start": 9463
      },
      {
        "length": 32,
        "start": 10571
      },
      {
        "length": 32,
        "start": 10754
      },
      {
        "length": 32,
        "start": 10997
      },
      {
        "length": 32,
        "start": 12185
      },
      {
        "length": 32,
        "start": 13111
      },
      {
        "length": 32,
        "start": 13200
      },
      {
        "length": 32,
        "start": 13252
      },
      {
        "length": 32,
        "start": 13381
      },
      {
        "length": 32,
        "start": 13957
      },
      {
        "length": 32,
        "start": 14410
      },
      {
        "length": 32,
        "start": 14559
      }
    ]
  },
  "source": "pragma solidity =0.6.6;\r\n\r\nimport \"@uniswap/v2-core/contracts/interfaces/INiftFactory.sol\";\r\nimport \"@uniswap/lib/contracts/libraries/TransferHelper.sol\";\r\n\r\nimport \"./interfaces/INiftRouter02.sol\";\r\nimport \"./libraries/NiftLibrary.sol\";\r\nimport \"./libraries/SafeMath.sol\";\r\nimport \"./interfaces/IERC20.sol\";\r\nimport \"./interfaces/IWETH.sol\";\r\n\r\ncontract NiftRouter is INiftRouter02 {\r\n    using SafeMath for uint256;\r\n\r\n    address public immutable override factory;\r\n    address public immutable override WETH;\r\n\r\n    modifier ensure(uint256 deadline) {\r\n        require(deadline >= block.timestamp, \"NiftRouter: EXPIRED\");\r\n        _;\r\n    }\r\n\r\n    constructor(address _factory, address _WETH) public {\r\n        factory = _factory;\r\n        WETH = _WETH;\r\n    }\r\n\r\n    receive() external payable {\r\n        assert(msg.sender == WETH); // only accept ETH via fallback from the WETH contract\r\n    }\r\n\r\n    // **** ADD LIQUIDITY ****\r\n    function _addLiquidity(\r\n        address tokenA,\r\n        address tokenB,\r\n        uint256 amountADesired,\r\n        uint256 amountBDesired,\r\n        uint256 amountAMin,\r\n        uint256 amountBMin\r\n    ) internal virtual returns (uint256 amountA, uint256 amountB) {\r\n        // create the pair if it doesn't exist yet\r\n        if (INiftFactory(factory).getPair(tokenA, tokenB) == address(0)) {\r\n            INiftFactory(factory).createPair(tokenA, tokenB);\r\n        }\r\n        (uint256 reserveA, uint256 reserveB) =\r\n            NiftLibrary.getReserves(factory, tokenA, tokenB);\r\n        if (reserveA == 0 && reserveB == 0) {\r\n            (amountA, amountB) = (amountADesired, amountBDesired);\r\n        } else {\r\n            uint256 amountBOptimal =\r\n                NiftLibrary.quote(amountADesired, reserveA, reserveB);\r\n            if (amountBOptimal <= amountBDesired) {\r\n                require(\r\n                    amountBOptimal >= amountBMin,\r\n                    \"NiftRouter: INSUFFICIENT_B_AMOUNT\"\r\n                );\r\n                (amountA, amountB) = (amountADesired, amountBOptimal);\r\n            } else {\r\n                uint256 amountAOptimal =\r\n                    NiftLibrary.quote(amountBDesired, reserveB, reserveA);\r\n                if (amountAOptimal <= amountADesired) {\r\n                    require(\r\n                        amountAOptimal >= amountAMin,\r\n                        \"NiftRouter: INSUFFICIENT_A_AMOUNT\"\r\n                    );\r\n                    (amountA, amountB) = (amountAOptimal, amountBDesired);\r\n                }\r\n            }\r\n        }\r\n    }\r\n\r\n    function addLiquidity(\r\n        address tokenA,\r\n        address tokenB,\r\n        uint256 amountADesired,\r\n        uint256 amountBDesired,\r\n        uint256 amountAMin,\r\n        uint256 amountBMin,\r\n        address to,\r\n        uint256 deadline\r\n    )\r\n        external\r\n        virtual\r\n        override\r\n        ensure(deadline)\r\n        returns (\r\n            uint256 amountA,\r\n            uint256 amountB,\r\n            uint256 liquidity\r\n        )\r\n    {\r\n        (amountA, amountB) = _addLiquidity(\r\n            tokenA,\r\n            tokenB,\r\n            amountADesired,\r\n            amountBDesired,\r\n            amountAMin,\r\n            amountBMin\r\n        );\r\n        address pair = NiftLibrary.pairFor(factory, tokenA, tokenB);\r\n        TransferHelper.safeTransferFrom(tokenA, msg.sender, pair, amountA);\r\n        TransferHelper.safeTransferFrom(tokenB, msg.sender, pair, amountB);\r\n        liquidity = INiftPair(pair).mint(to);\r\n    }\r\n\r\n    function addLiquidityETH(\r\n        address token,\r\n        uint256 amountTokenDesired,\r\n        uint256 amountTokenMin,\r\n        uint256 amountETHMin,\r\n        address to,\r\n        uint256 deadline\r\n    )\r\n        external\r\n        payable\r\n        virtual\r\n        override\r\n        ensure(deadline)\r\n        returns (\r\n            uint256 amountToken,\r\n            uint256 amountETH,\r\n            uint256 liquidity\r\n        )\r\n    {\r\n        (amountToken, amountETH) = _addLiquidity(\r\n            token,\r\n            WETH,\r\n            amountTokenDesired,\r\n            msg.value,\r\n            amountTokenMin,\r\n            amountETHMin\r\n        );\r\n        address pair = NiftLibrary.pairFor(factory, token, WETH);\r\n        TransferHelper.safeTransferFrom(token, msg.sender, pair, amountToken);\r\n        IWETH(WETH).deposit{value: amountETH}();\r\n        assert(IWETH(WETH).transfer(pair, amountETH));\r\n        liquidity = INiftPair(pair).mint(to);\r\n        // refund dust eth, if any\r\n        if (msg.value > amountETH)\r\n            TransferHelper.safeTransferETH(msg.sender, msg.value - amountETH);\r\n    }\r\n\r\n    // **** REMOVE LIQUIDITY ****\r\n    function removeLiquidity(\r\n        address tokenA,\r\n        address tokenB,\r\n        uint256 liquidity,\r\n        uint256 amountAMin,\r\n        uint256 amountBMin,\r\n        address to,\r\n        uint256 deadline\r\n    )\r\n        public\r\n        virtual\r\n        override\r\n        ensure(deadline)\r\n        returns (uint256 amountA, uint256 amountB)\r\n    {\r\n        address pair = NiftLibrary.pairFor(factory, tokenA, tokenB);\r\n        INiftPair(pair).transferFrom(msg.sender, pair, liquidity); // send liquidity to pair\r\n        (uint256 amount0, uint256 amount1) = INiftPair(pair).burn(to);\r\n        (address token0, ) = NiftLibrary.sortTokens(tokenA, tokenB);\r\n        (amountA, amountB) = tokenA == token0\r\n            ? (amount0, amount1)\r\n            : (amount1, amount0);\r\n        require(amountA >= amountAMin, \"NiftRouter: INSUFFICIENT_A_AMOUNT\");\r\n        require(amountB >= amountBMin, \"NiftRouter: INSUFFICIENT_B_AMOUNT\");\r\n    }\r\n\r\n    function removeLiquidityETH(\r\n        address token,\r\n        uint256 liquidity,\r\n        uint256 amountTokenMin,\r\n        uint256 amountETHMin,\r\n        address to,\r\n        uint256 deadline\r\n    )\r\n        public\r\n        virtual\r\n        override\r\n        ensure(deadline)\r\n        returns (uint256 amountToken, uint256 amountETH)\r\n    {\r\n        (amountToken, amountETH) = removeLiquidity(\r\n            token,\r\n            WETH,\r\n            liquidity,\r\n            amountTokenMin,\r\n            amountETHMin,\r\n            address(this),\r\n            deadline\r\n        );\r\n        TransferHelper.safeTransfer(token, to, amountToken);\r\n        IWETH(WETH).withdraw(amountETH);\r\n        TransferHelper.safeTransferETH(to, amountETH);\r\n    }\r\n\r\n    function removeLiquidityWithPermit(\r\n        address tokenA,\r\n        address tokenB,\r\n        uint256 liquidity,\r\n        uint256 amountAMin,\r\n        uint256 amountBMin,\r\n        address to,\r\n        uint256 deadline,\r\n        bool approveMax,\r\n        uint8 v,\r\n        bytes32 r,\r\n        bytes32 s\r\n    ) external virtual override returns (uint256 amountA, uint256 amountB) {\r\n        address pair = NiftLibrary.pairFor(factory, tokenA, tokenB);\r\n        uint256 value = approveMax ? uint256(-1) : liquidity;\r\n        INiftPair(pair).permit(\r\n            msg.sender,\r\n            address(this),\r\n            value,\r\n            deadline,\r\n            v,\r\n            r,\r\n            s\r\n        );\r\n        (amountA, amountB) = removeLiquidity(\r\n            tokenA,\r\n            tokenB,\r\n            liquidity,\r\n            amountAMin,\r\n            amountBMin,\r\n            to,\r\n            deadline\r\n        );\r\n    }\r\n\r\n    function removeLiquidityETHWithPermit(\r\n        address token,\r\n        uint256 liquidity,\r\n        uint256 amountTokenMin,\r\n        uint256 amountETHMin,\r\n        address to,\r\n        uint256 deadline,\r\n        bool approveMax,\r\n        uint8 v,\r\n        bytes32 r,\r\n        bytes32 s\r\n    )\r\n        external\r\n        virtual\r\n        override\r\n        returns (uint256 amountToken, uint256 amountETH)\r\n    {\r\n        address pair = NiftLibrary.pairFor(factory, token, WETH);\r\n        uint256 value = approveMax ? uint256(-1) : liquidity;\r\n        INiftPair(pair).permit(\r\n            msg.sender,\r\n            address(this),\r\n            value,\r\n            deadline,\r\n            v,\r\n            r,\r\n            s\r\n        );\r\n        (amountToken, amountETH) = removeLiquidityETH(\r\n            token,\r\n            liquidity,\r\n            amountTokenMin,\r\n            amountETHMin,\r\n            to,\r\n            deadline\r\n        );\r\n    }\r\n\r\n    // **** REMOVE LIQUIDITY (supporting fee-on-transfer tokens) ****\r\n    function removeLiquidityETHSupportingFeeOnTransferTokens(\r\n        address token,\r\n        uint256 liquidity,\r\n        uint256 amountTokenMin,\r\n        uint256 amountETHMin,\r\n        address to,\r\n        uint256 deadline\r\n    ) public virtual override ensure(deadline) returns (uint256 amountETH) {\r\n        (, amountETH) = removeLiquidity(\r\n            token,\r\n            WETH,\r\n            liquidity,\r\n            amountTokenMin,\r\n            amountETHMin,\r\n            address(this),\r\n            deadline\r\n        );\r\n        TransferHelper.safeTransfer(\r\n            token,\r\n            to,\r\n            IERC20(token).balanceOf(address(this))\r\n        );\r\n        IWETH(WETH).withdraw(amountETH);\r\n        TransferHelper.safeTransferETH(to, amountETH);\r\n    }\r\n\r\n    function removeLiquidityETHWithPermitSupportingFeeOnTransferTokens(\r\n        address token,\r\n        uint256 liquidity,\r\n        uint256 amountTokenMin,\r\n        uint256 amountETHMin,\r\n        address to,\r\n        uint256 deadline,\r\n        bool approveMax,\r\n        uint8 v,\r\n        bytes32 r,\r\n        bytes32 s\r\n    ) external virtual override returns (uint256 amountETH) {\r\n        address pair = NiftLibrary.pairFor(factory, token, WETH);\r\n        uint256 value = approveMax ? uint256(-1) : liquidity;\r\n        INiftPair(pair).permit(\r\n            msg.sender,\r\n            address(this),\r\n            value,\r\n            deadline,\r\n            v,\r\n            r,\r\n            s\r\n        );\r\n        amountETH = removeLiquidityETHSupportingFeeOnTransferTokens(\r\n            token,\r\n            liquidity,\r\n            amountTokenMin,\r\n            amountETHMin,\r\n            to,\r\n            deadline\r\n        );\r\n    }\r\n\r\n    // **** SWAP ****\r\n    // requires the initial amount to have already been sent to the first pair\r\n    \r\n    function _swap(\r\n        uint256[] memory amounts,\r\n        address[] memory path,\r\n        address _to\r\n    ) internal virtual {\r\n        for (uint256 i; i < path.length - 1; i++) {\r\n            (address input, address output) = (path[i], path[i + 1]);\r\n            (address token0, ) = NiftLibrary.sortTokens(input, output);\r\n            uint256 amountOut = amounts[i + 1];\r\n            (uint256 amount0Out, uint256 amount1Out) =\r\n                input == token0\r\n                    ? (uint256(0), amountOut)\r\n                    : (amountOut, uint256(0));\r\n            address to =\r\n                i < path.length - 2\r\n                    ? NiftLibrary.pairFor(factory, output, path[i + 2])\r\n                    : _to;\r\n            INiftPair(NiftLibrary.pairFor(factory, input, output)).swap(\r\n                amount0Out,\r\n                amount1Out,\r\n                to,\r\n                new bytes(0)\r\n            );\r\n        }\r\n    }\r\n\r\n    function swapExactTokensForTokens(\r\n        uint256 amountIn,\r\n        uint256 amountOutMin,\r\n        address[] calldata path,\r\n        address to,\r\n        uint256 deadline\r\n    )\r\n        external\r\n        virtual\r\n        override\r\n        ensure(deadline)\r\n        returns (uint256[] memory amounts)\r\n    {\r\n        amounts = NiftLibrary.getAmountsOut(factory, amountIn, path);\r\n        require(\r\n            amounts[amounts.length - 1] >= amountOutMin,\r\n            \"NiftRouter: INSUFFICIENT_OUTPUT_AMOUNT\"\r\n        );\r\n        TransferHelper.safeTransferFrom(\r\n            path[0],\r\n            msg.sender,\r\n            NiftLibrary.pairFor(factory, path[0], path[1]),\r\n            amounts[0]\r\n        );\r\n        _swap(amounts, path, to);\r\n    }\r\n\r\n    function swapTokensForExactTokens(\r\n        uint256 amountOut,\r\n        uint256 amountInMax,\r\n        address[] calldata path,\r\n        address to,\r\n        uint256 deadline\r\n    )\r\n        external\r\n        virtual\r\n        override\r\n        ensure(deadline)\r\n        returns (uint256[] memory amounts)\r\n    {\r\n        amounts = NiftLibrary.getAmountsIn(factory, amountOut, path);\r\n        require(\r\n            amounts[0] <= amountInMax,\r\n            \"NiftRouter: EXCESSIVE_INPUT_AMOUNT\"\r\n        );\r\n        TransferHelper.safeTransferFrom(\r\n            path[0],\r\n            msg.sender,\r\n            NiftLibrary.pairFor(factory, path[0], path[1]),\r\n            amounts[0]\r\n        );\r\n        _swap(amounts, path, to);\r\n    }\r\n\r\n    function swapExactETHForTokens(\r\n        uint256 amountOutMin,\r\n        address[] calldata path,\r\n        address to,\r\n        uint256 deadline\r\n    )\r\n        external\r\n        payable\r\n        virtual\r\n        override\r\n        ensure(deadline)\r\n        returns (uint256[] memory amounts)\r\n    {\r\n        require(path[0] == WETH, \"NiftRouter: INVALID_PATH\");\r\n        amounts = NiftLibrary.getAmountsOut(factory, msg.value, path);\r\n        require(\r\n            amounts[amounts.length - 1] >= amountOutMin,\r\n            \"NiftRouter: INSUFFICIENT_OUTPUT_AMOUNT\"\r\n        );\r\n        IWETH(WETH).deposit{value: amounts[0]}();\r\n        assert(\r\n            IWETH(WETH).transfer(\r\n                NiftLibrary.pairFor(factory, path[0], path[1]),\r\n                amounts[0]\r\n            )\r\n        );\r\n        _swap(amounts, path, to);\r\n    }\r\n\r\n    function swapTokensForExactETH(\r\n        uint256 amountOut,\r\n        uint256 amountInMax,\r\n        address[] calldata path,\r\n        address to,\r\n        uint256 deadline\r\n    )\r\n        external\r\n        virtual\r\n        override\r\n        ensure(deadline)\r\n        returns (uint256[] memory amounts)\r\n    {\r\n        require(path[path.length - 1] == WETH, \"NiftRouter: INVALID_PATH\");\r\n        amounts = NiftLibrary.getAmountsIn(factory, amountOut, path);\r\n        require(\r\n            amounts[0] <= amountInMax,\r\n            \"NiftRouter: EXCESSIVE_INPUT_AMOUNT\"\r\n        );\r\n        TransferHelper.safeTransferFrom(\r\n            path[0],\r\n            msg.sender,\r\n            NiftLibrary.pairFor(factory, path[0], path[1]),\r\n            amounts[0]\r\n        );\r\n        _swap(amounts, path, address(this));\r\n        IWETH(WETH).withdraw(amounts[amounts.length - 1]);\r\n        TransferHelper.safeTransferETH(to, amounts[amounts.length - 1]);\r\n    }\r\n\r\n    function swapExactTokensForETH(\r\n        uint256 amountIn,\r\n        uint256 amountOutMin,\r\n        address[] calldata path,\r\n        address to,\r\n        uint256 deadline\r\n    )\r\n        external\r\n        virtual\r\n        override\r\n        ensure(deadline)\r\n        returns (uint256[] memory amounts)\r\n    {\r\n        require(path[path.length - 1] == WETH, \"NiftRouter: INVALID_PATH\");\r\n        amounts = NiftLibrary.getAmountsOut(factory, amountIn, path);\r\n        require(\r\n            amounts[amounts.length - 1] >= amountOutMin,\r\n            \"NiftRouter: INSUFFICIENT_OUTPUT_AMOUNT\"\r\n        );\r\n        TransferHelper.safeTransferFrom(\r\n            path[0],\r\n            msg.sender,\r\n            NiftLibrary.pairFor(factory, path[0], path[1]),\r\n            amounts[0]\r\n        );\r\n        _swap(amounts, path, address(this));\r\n        IWETH(WETH).withdraw(amounts[amounts.length - 1]);\r\n        TransferHelper.safeTransferETH(to, amounts[amounts.length - 1]);\r\n    }\r\n\r\n    function swapETHForExactTokens(\r\n        uint256 amountOut,\r\n        address[] calldata path,\r\n        address to,\r\n        uint256 deadline\r\n    )\r\n        external\r\n        payable\r\n        virtual\r\n        override\r\n        ensure(deadline)\r\n        returns (uint256[] memory amounts)\r\n    {\r\n        require(path[0] == WETH, \"NiftRouter: INVALID_PATH\");\r\n        amounts = NiftLibrary.getAmountsIn(factory, amountOut, path);\r\n        require(amounts[0] <= msg.value, \"NiftRouter: EXCESSIVE_INPUT_AMOUNT\");\r\n        IWETH(WETH).deposit{value: amounts[0]}();\r\n        assert(\r\n            IWETH(WETH).transfer(\r\n                NiftLibrary.pairFor(factory, path[0], path[1]),\r\n                amounts[0]\r\n            )\r\n        );\r\n        _swap(amounts, path, to);\r\n        // refund dust eth, if any\r\n        if (msg.value > amounts[0])\r\n            TransferHelper.safeTransferETH(msg.sender, msg.value - amounts[0]);\r\n    }\r\n\r\n    // // **** SWAP (supporting fee-on-transfer tokens) ****\r\n    // // requires the initial amount to have already been sent to the first pair\r\n    // function _swapSupportingFeeOnTransferTokens(\r\n    //     address[] memory path,\r\n    //     address _to\r\n    // ) internal virtual {\r\n    //     for (uint256 i; i < path.length - 1; i++) {\r\n    //         (address input, address output) = (path[i], path[i + 1]);\r\n    //         (address token0, ) = NiftLibrary.sortTokens(input, output);\r\n    //         INiftPair pair =\r\n    //             INiftPair(NiftLibrary.pairFor(factory, input, output));\r\n    //         uint256 amountInput;\r\n    //         uint256 amountOutput;\r\n    //         {\r\n    //             // scope to avoid stack too deep errors\r\n    //             (uint256 reserve0, uint256 reserve1, ) = pair.getReserves();\r\n    //             (uint256 reserveInput, uint256 reserveOutput) =\r\n    //                 input == token0\r\n    //                     ? (reserve0, reserve1)\r\n    //                     : (reserve1, reserve0);\r\n    //             amountInput = IERC20(input).balanceOf(address(pair)).sub(\r\n    //                 reserveInput\r\n    //             );\r\n    //             amountOutput = NiftLibrary.getAmountOut(\r\n    //                 amountInput,\r\n    //                 reserveInput,\r\n    //                 reserveOutput\r\n    //             );\r\n    //         }\r\n    //         (uint256 amount0Out, uint256 amount1Out) =\r\n    //             input == token0\r\n    //                 ? (uint256(0), amountOutput)\r\n    //                 : (amountOutput, uint256(0));\r\n    //         address to =\r\n    //             i < path.length - 2\r\n    //                 ? NiftLibrary.pairFor(factory, output, path[i + 2])\r\n    //                 : _to;\r\n    //         pair.swap(amount0Out, amount1Out, to, new bytes(0));\r\n    //     }\r\n    // }\r\n\r\n    // function swapExactTokensForTokensSupportingFeeOnTransferTokens(\r\n    //     uint256 amountIn,\r\n    //     uint256 amountOutMin,\r\n    //     address[] calldata path,\r\n    //     address to,\r\n    //     uint256 deadline\r\n    // ) external virtual override ensure(deadline) {\r\n    //     TransferHelper.safeTransferFrom(\r\n    //         path[0],\r\n    //         msg.sender,\r\n    //         NiftLibrary.pairFor(factory, path[0], path[1]),\r\n    //         amountIn\r\n    //     );\r\n    //     uint256 balanceBefore = IERC20(path[path.length - 1]).balanceOf(to);\r\n    //     _swapSupportingFeeOnTransferTokens(path, to);\r\n    //     require(\r\n    //         IERC20(path[path.length - 1]).balanceOf(to).sub(balanceBefore) >=\r\n    //             amountOutMin,\r\n    //         \"NiftRouter: INSUFFICIENT_OUTPUT_AMOUNT\"\r\n    //     );\r\n    // }\r\n\r\n    // function swapExactETHForTokensSupportingFeeOnTransferTokens(\r\n    //     uint256 amountOutMin,\r\n    //     address[] calldata path,\r\n    //     address to,\r\n    //     uint256 deadline\r\n    // ) external payable virtual override ensure(deadline) {\r\n    //     require(path[0] == WETH, \"NiftRouter: INVALID_PATH\");\r\n    //     uint256 amountIn = msg.value;\r\n    //     IWETH(WETH).deposit{value: amountIn}();\r\n    //     assert(\r\n    //         IWETH(WETH).transfer(\r\n    //             NiftLibrary.pairFor(factory, path[0], path[1]),\r\n    //             amountIn\r\n    //         )\r\n    //     );\r\n    //     uint256 balanceBefore = IERC20(path[path.length - 1]).balanceOf(to);\r\n    //     _swapSupportingFeeOnTransferTokens(path, to);\r\n    //     require(\r\n    //         IERC20(path[path.length - 1]).balanceOf(to).sub(balanceBefore) >=\r\n    //             amountOutMin,\r\n    //         \"NiftRouter: INSUFFICIENT_OUTPUT_AMOUNT\"\r\n    //     );\r\n    // }\r\n\r\n    // function swapExactTokensForETHSupportingFeeOnTransferTokens(\r\n    //     uint256 amountIn,\r\n    //     uint256 amountOutMin,\r\n    //     address[] calldata path,\r\n    //     address to,\r\n    //     uint256 deadline\r\n    // ) external virtual override ensure(deadline) {\r\n    //     require(path[path.length - 1] == WETH, \"NiftRouter: INVALID_PATH\");\r\n    //     TransferHelper.safeTransferFrom(\r\n    //         path[0],\r\n    //         msg.sender,\r\n    //         NiftLibrary.pairFor(factory, path[0], path[1]),\r\n    //         amountIn\r\n    //     );\r\n    //     _swapSupportingFeeOnTransferTokens(path, address(this));\r\n    //     uint256 amountOut = IERC20(WETH).balanceOf(address(this));\r\n    //     require(\r\n    //         amountOut >= amountOutMin,\r\n    //         \"NiftRouter: INSUFFICIENT_OUTPUT_AMOUNT\"\r\n    //     );\r\n    //     IWETH(WETH).withdraw(amountOut);\r\n    //     TransferHelper.safeTransferETH(to, amountOut);\r\n    // }\r\n\r\n    // **** LIBRARY FUNCTIONS ****\r\n    function quote(\r\n        uint256 amountA,\r\n        uint256 reserveA,\r\n        uint256 reserveB\r\n    ) public pure virtual override returns (uint256 amountB) {\r\n        return NiftLibrary.quote(amountA, reserveA, reserveB);\r\n    }\r\n\r\n    function getAmountOut(\r\n        uint256 amountIn,\r\n        uint256 reserveIn,\r\n        uint256 reserveOut\r\n    ) public pure virtual override returns (uint256 amountOut) {\r\n        return NiftLibrary.getAmountOut(amountIn, reserveIn, reserveOut);\r\n    }\r\n\r\n    function getAmountIn(\r\n        uint256 amountOut,\r\n        uint256 reserveIn,\r\n        uint256 reserveOut\r\n    ) public pure virtual override returns (uint256 amountIn) {\r\n        return NiftLibrary.getAmountIn(amountOut, reserveIn, reserveOut);\r\n    }\r\n\r\n    function getAmountsOut(uint256 amountIn, address[] memory path)\r\n        public\r\n        view\r\n        virtual\r\n        override\r\n        returns (uint256[] memory amounts)\r\n    {\r\n        return NiftLibrary.getAmountsOut(factory, amountIn, path);\r\n    }\r\n\r\n    function getAmountsIn(uint256 amountOut, address[] memory path)\r\n        public\r\n        view\r\n        virtual\r\n        override\r\n        returns (uint256[] memory amounts)\r\n    {\r\n        return NiftLibrary.getAmountsIn(factory, amountOut, path);\r\n    }\r\n}\r\n",
  "sourcePath": "D:/Blockchain/Niftswap/niftswap-periphery/contracts/NiftRouter.sol",
  "compiler": {
    "name": "solc",
    "version": "0.6.6+commit.6c089d02.Emscripten.clang"
  },
  "schemaVersion": "3.3.1",
  "updatedAt": "2021-04-18T16:48:18.789Z",
  "networkType": "ethereum",
  "devdoc": {
    "methods": {}
  },
  "userdoc": {
    "methods": {}
  }
}